:020000040800F2
:10000000E80800204D020008DD2F0008B52D00088B
:10001000252F0008ED120008153F00080000000021
:100020000000000000000000000000000D39000882
:10003000EF120008000000008F3500080F3900089B
:1000400067020008670200086702000867020008EC
:1000500067020008670200086702000867020008DC
:1000600067020008670200086702000867020008CC
:1000700067020008670200086702000867020008BC
:1000800067020008670200086702000867020008AC
:10009000670200086702000867020008670200089C
:1000A000670200086702000867020008670200088C
:1000B000DD390008000000000000000067020008B1
:1000C000670200080000000000000000670200084E
:1000D0000000000067020008D53E00080000000094
:1000E000670200086702000800000000000000002E
:1000F0000000000000000000000000000000000000
:10010000000000000000000000000000670200087E
:1001100000000000000000006702000867020008FD
:10012000670200086702000867020008670200080B
:10013000670200080000000000000000000000004E
:1001400067020008670200086702000867020008EB
:1001500067020008670200086702000867020008DB
:10016000670200086702000867020008000000003C
:10017000670200086702000800000000000000009D
:1001800067020008670200086702000800F002F832
:1001900000F04CF80AA090E8000C82448344AAF1D5
:1001A0000107DA4501D100F041F8AFF2090EBAE8D3
:1001B0000F0013F0010F18BFFB1A43F0010318479B
:1001C0005441000074410000103A24BF78C878C13F
:1001D000FAD8520724BF30C830C144BF04680C604D
:1001E000704700000023002400250026103A28BF95
:1001F00078C1FBD8520728BF30C148BF0B60704799
:10020000782900F08181732900F0F983002070477C
:100210001FB504F02FF89DE8030000F031FB00F05B
:1002200027FC1FBD10B500F08CFC10BD00F0F7FCE2
:100230001146FFF7EDFF03F093FE00F0BFFE03B49D
:10024000FFF7F0FF03BC00F0F7FE0000094880470D
:1002500009480047FEE7FEE7FEE7FEE7FEE7FEE7A8
:10026000FEE7FEE7FEE7FEE704480549054A064BC0
:1002700070470000A13900088D010008E802002045
:10028000E8080020E8040020E804002070B50646D5
:1002900000F0DAFA056806F10B0020F00704B4421A
:1002A0009CBF002070BD2B466A68BAB11068A0429E
:1002B00010D304F1080188423CBF5068586007D34E
:1002C0005168101941601168091B01605860146081
:1002D000101D70BD13465268002AE7D121462846FA
:1002E00000F0BAFA0028DED170BD70B50446051FD3
:1002F00000F0AAFA0068002C14BF446870BD002CFE
:1003000018BFAC423CBF20466468F8D301680A18A5
:10031000AA4218BF456003D12A680546114401600E
:1003200028684119A1421CBF6C6070BD616869609A
:1003300021680844286070BD53EA020C00F069800F
:100340002DE9F04B4FF00006002B1FBFB3FA83F5E9
:1003500003FA05F424FA05F65E4012BF1643B2FA1A
:1003600082F502FA05F4C5F120051EBF22FA05FC4C
:1003700044EA0C04203556EA044C4FEA144418BFF2
:10038000641C4FF000084FF00009904271EB030C21
:1003900039D3002919BFB1FA81F701FA07F6B0FA8B
:1003A00080F700FA07F6C7F120071EBF20FA07FC06
:1003B00046EA0C062037B6FBF4FCA7EB0507103F16
:1003C00007F01F0BCBF120060CFA0BFB2CFA06F6FC
:1003D00044BFB3460026202FA4BF5E464FF0000B5B
:1003E0005BEA060C08BF4FF0010B19EB0B09ABFBE6
:1003F000027C48EB0608C01B06FB02CC0BFB03CCBF
:1004000071EB0C01C1E70B46024641464846BDE888
:10041000F08B13B54FF000004FF00001AFF30080F8
:10042000BDE81C40704700000FB4044910B503AA92
:10043000029800F0E9FA10BC5DF814FBDC01002022
:100440000FB41CB5074B06AA7B446946009005987B
:1004500000F0ABFA0020694600F0BAFA1CBC5DF867
:1004600014FB00008505000070B50446856900682E
:10047000C10601D5302600E02026C00707D070BD98
:10048000D4E9012130469047206A401C20626D1E4D
:10049000F6D570BD70B5044685690078C00707D1F0
:1004A00070BDD4E9012120209047206A401C2062C1
:1004B0006D1EF6D570BD70B50C460546012A05D0F7
:1004C0002878800600D5EA69002302E0012305E0D0
:1004D0005B1C934202D2E05C0028F9D1A869E618BF
:1004E000C01AA861286A184428622846FFF7BCFF92
:1004F00004E0D5E9012114F8010B9047B442F8D388
:100500002846FFF7C7FF70BD70B504460D4621466B
:100510001068AFF300802188090502D50F4A7A449C
:1005200002E00E4A7A440E32002104F1240305E071
:1005300000F00F060009965D5E54491C0028F7D1B3
:1005400020780023000704D5702D02D009B10223C2
:1005500011322046BDE8704000F0C8B9AA3D000045
:100560002DE9F05F894604464FF0000ADFF824B118
:10057000FB44C0F820A02046E168884700287DD0D1
:10058000252806D0D4E901219047206A401C20622A
:10059000F1E700255F462046E168884720280646A7
:1005A00007DB312E05D2B81910F8200C08B105432D
:1005B000F1E7A80701D525F00405C4F81CA0002721
:1005C000C4F818A02A2E09D0304603F0B4FC38B382
:1005D00004EB8708303EC8F8186019E059F8041B8E
:1005E000204604EB87029161E1688847012F0646A7
:1005F00018D1E069002820DA25F020051DE0D8F8A0
:10060000180000EB800006EB40003038C8F81800F6
:100610002046E1688847064603F08DFC0028EED1AD
:10062000012F0AD02E2E08D12046E16888477F1C72
:100630000646022F45F02005C4DBA069002803DA36
:10064000404245F00105A061E80701D025F0100502
:10065000A6B1A6F14100192802D8203645F400655C
:100660004A463146204625604D46FFF7C9FD60B138
:10067000012807D0ED1D25F0070000E007E000F19C
:10068000080978E705F1040975E730467AE7206A3A
:1006900000F002B8803D000030BCBDE8C09F40EAD9
:1006A000010310B59B070FD1042A0DD310C808C948
:1006B000121F9C42F8D020BA19BA884201D90120F1
:1006C00010BD4FF0FF3010BD1AB1D30703D0521C3C
:1006D00007E0002010BD10F8013B11F8014B1B1B77
:1006E00007D110F8013B11F8014B1B1B01D1921EE1
:1006F000F1D1184610BD10B5431C02E010F8011BE3
:1007000071B18107FAD14FF0013202C88C1A8C43C3
:1007100014EAC211F9D0C01A0A0603D0C01E10BDD7
:10072000C01A10BD0A0401D0801E10BD0902FCD001
:10073000401E10BD421E12F8013F002BFBD111F8E4
:10074000013B002B02F8013BF9D1704710B5203A6C
:10075000C0F00B80B1E81850203AA0E81850B1E87A
:100760001850A0E81850BFF4F5AF5FEA027C24BF30
:10077000B1E81850A0E8185044BF18C918C0BDE827
:1007800010405FEA827C24BF51F8043B40F8043BF0
:1007900008BF7047D20728BF31F8023B48BF11F8A5
:1007A000012B28BF20F8023B48BF00F8012B7047FF
:1007B0004FF000020429C0F0128010F0030C00F08A
:1007C0001B80CCF1040CBCF1020F18BF00F8012B08
:1007D000A8BF20F8022BA1EB0C0100F00DB85FEAD6
:1007E000C17C24BF00F8012B00F8012B48BF00F8A2
:1007F000012B70474FF0000200B513469446964611
:10080000203922BFA0E80C50A0E80C50B1F1200123
:10081000BFF4F7AF090728BFA0E80C5048BF0CC0D1
:100820005DF804EB890028BF40F8042B08BF70472F
:1008300048BF20F8022B11F0804F18BF00F8012BA1
:100840007047704770477047004870478C0200201F
:10085000704770477047704738B504460A46002015
:100860006946AFF30080002808BF38BD02460099F2
:10087000204600F0DFF8012038BD012000F094B9D7
:10088000F8B5AFF30080054600200C46102000BFED
:100890000646A819A0420DD9324669460020AFF39A
:1008A0000080070008BF00F07FF90098A04218BF41
:1008B0000546C419FFF7C8FF05600746F01D20F084
:1008C00007004619284600F00AF8B44208BFF8BDF0
:1008D000A21B31463868BDE8F84000F0ABB80021F3
:1008E0000160C0E901107047102070472DE9F04702
:1008F0000D4699469246044600F124080168880690
:1009000004D5E06921F01001216000E00120A84237
:1009100001DD471B00E00027A1697A1902EB0900FD
:10092000081AA0612078C00602D42046FFF79CFD7B
:10093000002608E0D4E901211AF806009047206A51
:10094000401C761C20624E45F4DB2078C0060AD598
:100950002046FFF789FD06E0D4E9012130209047C9
:10096000206A401C2062381EA7F10107F4DC07E072
:10097000D4E9012118F805009047206A401C206244
:10098000281EA5F10105F3DC2046FFF783FD207842
:10099000000602D50220BDE8F0870120FBE7000039
:1009A00001694A1C02610878704700B58FB0CDE933
:1009B00001310021059105497944CDE90310114623
:1009C0006846FFF7CDFD0FB000BD0000E5FFFFFF5B
:1009D0000A6802F8010B0A60704710B5436913B149
:1009E000AFF3008001E0FFF766FD012010BD127833
:1009F00000F124010A7000224A700122EDE711681B
:100A00004FF0FF32E9E70000074B70B50D467B441D
:100A1000FFF7CBFF0446284600F026F810B14FF050
:100A2000FF3070BD204670BD333500000048704770
:100A300084020020034640688C46002818BF884284
:100A40003CBF03464068F8D318681844884207D072
:100A50000CF1030020F00700001D411A521A014654
:100A6000081D0A60FFF741BC007B00F08000704762
:100A700010B542485421FFF7BDFE41485421FFF70D
:100A8000B9FE40485421FFF7B5FE3F493B483C4A78
:100A90003F4B08603D490A603A491960531C0365A1
:100AA000481C1065012008653B48344A39A1784448
:100AB00000F0E8F920B9384878440A3800F08CFA98
:100AC00037482F4A35A1784400F0DCF920B9344882
:100AD00078440A3800F080FA32482A4A2FA1784434
:100AE00000F0D0F920B92F4878440A3800F074FAA1
:100AF00040232248DC000021224600F0A0F920B16A
:100B000025487844543800F067FA1D4822464023AF
:100B1000002100F094F920B121487844543800F0C5
:100B20005BFA184822461023002100F088F90028BB
:100B300006D01C487844BDE81040563800F04CBA46
:100B400010BD104870B5006D20F001040B4800F096
:100B50000FFA0B4800F00CFA0A4800F009FA09E015
:100B6000206D20F00105204600F002FA2046FFF734
:100B7000BCFB2C46002CF3D170BD00008801002086
:100B8000DC010020300200201400002018000020AA
:100B90001C000020720000005338000077000000A5
:100BA0003F3800002B38000010B500F01DFABDE8FA
:100BB000104000F00CBA0EB5CDE90001FFF79BFD27
:100BC000029069460120ABBE0EBD08B56946009093
:100BD0000220ABBE08BD1FB58DE8070069460520A1
:100BE000ABBE04B010BD1FB58DE80F0069460620EE
:100BF000ABBEF6E708B5694600900920ABBE08BD5C
:100C00001CB5CDE9000169460A20ABBE1CBD70478A
:100C100008B5694600900C20ABBE08BD704775460C
:100C2000FFF704FFAE4605006946534620F0070073
:100C3000854618B020B5FFF717FBBDE820404FF000
:100C400000064FF000074FF000084FF0000B21F0B6
:100C50000701AC46ACE8C009ACE8C009ACE8C00983
:100C6000ACE8C0098D4670472DE9F04705460C46B3
:100C7000C86820F4201040F48000C860800602D5C7
:100C8000084600F0B2FAE06841F282014FF0FF3905
:100C90000140022903D0204600F050FAB5E000F4EC
:100CA0002041B1F5004F0FD1C00306D56168E06A5D
:100CB000884200D80846606006E02069E062606013
:100CC0006069FFF7A5FFA061A0680022EEB20028CE
:100CD0000DDAE1688B050AD4C043A06041F490307E
:100CE0002260E0606068411C61600670A5E0E06819
:100CF0009046226040F40050E060206968BB606963
:100D0000FFF778FF012704F12405A0B1A08910F4B2
:100D1000407F08D0E069FFF7B9FA206118B1E068B8
:100D200040F4006016E0E7612561E06820F440705F
:100D300040F480600EE0E069FFF7A8FA0028206127
:100D4000F1D0E06840F4006010F4407FE06002D130
:100D500040F48070E06020696060E06825696FF0B1
:100D6000010AC1051FD56168E06A884200D80846BB
:100D7000411B04D02246284600F0EAF9F0BBE068A7
:100D8000010203D5E562C4E9015854E0691CE1623F
:100D90006160E16940F48030491EC4E902103046C8
:100DA0002E70BDE8F087010202D500F480320AE01F
:100DB0006068411C61600670E0680A2E40F4803073
:100DC000E06006D00022E16A6068814203D90B46E8
:100DD00002E00122F7E70346A7895B1B7F0503D4E6
:100DE000E7699F4200DDE2B1814200D80146E56239
:100DF0000F1AC4E90158002B09DD00E005E0224686
:100E00001946284600F0A4F908B14846C9E747B199
:100E1000A069E5626560C01BA061E06840F0100059
:100E2000E060E068000208D56168A069E562491BDE
:100E300008446560A0615046B3E73046B1E770B53D
:100E4000C468A50713D0650211D4B2F5807F09D01C
:100E5000B2F5007F06D0B2F5806F08D1012300F112
:100E6000240106E05D1E6FF07F46B54201D30120EC
:100E700070BD0161C361416024F470611143C160C0
:100E8000002070BD2DE9F0410C460746164610467D
:100E900000F06EF82078611C61280AD0722802D018
:100EA00077283CD102E00125002405E00225042436
:100EB00002E0082448F2020511F8010B2B2806D0A5
:100EC000622809D011F8010C74280AD00BE045F013
:100ED000030544F00204EFE745F0040544F0010483
:100EE000EAE744F0100438462146FFF764FE411C4F
:100EF00015D00021316171604FF40071F560F1612E
:100F00007061200704D530460222002100F09AF8D3
:100F1000306D40F0010030653046BDE8F0810020C2
:100F2000FBE72DE9F0410D460646104C206DC10748
:100F300004D0410804D020F00104F7E722460EE077
:100F40005420FFF7A3F907000ED0206D47F00101F0
:100F50000843542120653846FFF74CFC3A462946A1
:100F60003046BDE8F0418DE70020D6E7880100203B
:100F70002DE9F04704464FF000094FF0FF37C568F0
:100F8000D4E90486A80707D0204600F00BF93046C4
:100F9000FFF71BFE002802DA3846BDE8F087280577
:100FA00002D54046FFF7A1F94C212046FFF722FC6D
:100FB000206D20F0010020654846EEE710B504469C
:100FC000AFF300802046BDE81040FFF738B9002895
:100FD00001D000F031B8704710B500F041F9BDE81C
:100FE0001040FFF7F4BF000010B5012805D0002124
:100FF00003A000F01BF9012010BD09A1F8E70000D3
:1010000053494752544D454D3A204F7574206F66F1
:101010002068656170206D656D6F72790000000059
:101020003A2048656170206D656D6F727920636F3D
:10103000727275707465640001491820ABBEFEE7DA
:10104000260002002DE9F041044616460D46476988
:10105000007B80072ED03846FFF7CCFD50BB3EB357
:10106000012E02D0022E25D104E0204600F019F90D
:1010700005441DE03846FFF7CBFDE168002841F04C
:101080001001E16005DA204600F058F80120BDE8C3
:10109000F081C9030BD56268E16A914200D811461C
:1010A000A26911442269891A814200DD084605447B
:1010B000002D01DA0220EAE7E16A6068E268814215
:1010C00006D29103E06203D522F4003141F0100210
:1010D000A6690027AE4213DCE16A814201D90B46C2
:1010E00000E0034603EB060C2369ACEB030CAC45B4
:1010F00006DD814201D98C4600E084469C4505D13D
:10110000A760276042F02000A5620DE0AD1BE669F4
:10111000AE1B8142A66000D90846C01A281A20607A
:101120005819606022F0200003490840E060002068
:1011300084F84870ABE70000BFCFD7FFC16821F447
:10114000001141F08001C1600021816001607047A1
:101150002DE9F047814614460E464FF0FF383248DD
:10116000D5685769054209D03846A169FFF748FD9F
:10117000002811DB2C48C0430540E5602B46324671
:1011800049463846FFF727FDA16920F00042B21A10
:1011900011440028A16103D02046FFF7CFFF40464D
:1011A000BDE8F08770B504460569C06A6168884289
:1011B00000D80846E16821F42011E160C90312D586
:1011C000A84208D02246411B2846FFF7C1FF10B1B4
:1011D0004FF0FF3070BD0020E562C4E90150E068C7
:1011E00020F48030E060002070BD10B50446C06877
:1011F00020F02000E060A16AA06988420DD020465E
:10120000FFF7D0FFE06820F4405040F01000E060AD
:10121000A06AA0612069E062606044F24001E06879
:101220008843E06010BD00001000020070B5054664
:101230000C460A2000E06D1C00F02CF835B128782F
:101240000028F8D102E0641C00F024F814B12078E2
:101250000028F8D1BDE870400A2000F01BB800005B
:1012600010B5014602A0FFF7E1FF012010BD00000C
:1012700053494752545245443A2052656469726555
:1012800063743A2063616E2774206F70656E3A2034
:101290000000000008B569468DF800000320ABBED1
:1012A00008BD10B50146C268900703D0900607D567
:1012B000886A0AE000F016F801210160881E10BD5E
:1012C0008B69486818440B69C01A91F848301BB103
:1012D00091F84910401A10BD1103FCD50028FADD21
:1012E000401E10BD0048704784020020FEE7704792
:1012F00072B6FEE710B590F825100022022905D03D
:101300000421C16380F82420012010BD01680B680E
:1013100023F00E030B6001680B6823F001030B60E0
:1013200090F84410046C01F01C03012101FA03F34E
:10133000636080F8251080F82420104610BD10B599
:1013400090F825100024022903D00421C163012450
:101350001AE001680A6822F00E020A6001680A6851
:1013600022F001020A6090F84410036C01F01C02A4
:10137000012101FA02F25A6080F82510002180F85C
:101380002410816B01B18847204610BD70B504461A
:1013900000F0E4F80546601C02D0044800780444DC
:1013A00000F0DCF8401BA042FAD370BD040000201E
:1013B0002DE9FC4FDFF880A1002301250AF1040B81
:1013C00003244FF00F0C0BF1040EAEE005FA03F608
:1013D00032406FD04F68012F05D0022F03D0112F5C
:1013E00001D0122F17D1D0F808905F0004FA07F847
:1013F00029EA08090097D1F80C8008FA07F848EAAA
:101400000908C0F808804768B7430E79C6F300168C
:101410009E403E434660C6684FEA430804FA08F718
:10142000BE4301978F6807FA08F73743C7604E68D5
:10143000022E01D0122E13D1DE0800EB8606009694
:10144000366A5F07FF0E0CFA07F926EA0906D1F89B
:10145000109009FA07F949EA0609009EC6F820909B
:101460000768019EB7430E7906F0030606FA08F6F0
:101470003E4306604E68F60056D5304E376E47F054
:1014800001073766366E23F0030706F00106009663
:101490002B4E3E44B146B6689F074FEA17780CFAC8
:1014A00008F7BE43B0F1904F05D0264FB84204D1A3
:1014B000012708E038E0002705E0234FB84201D1BA
:1014C000022700E0072707FA08F73743C9F8087032
:1014D000DAF800605746D1F8048096435FEAC838CE
:1014E00000D516433E60DBF800605F46D1F804800B
:1014F00096435FEA883800D516433E60DEF8006008
:101500007746D1F8048096435FEAC82800D5164391
:101510003E60094F0C373E68D1F8048096435FEA7D
:10152000882800D516433E605B1C0A6832FA03F631
:101530007FF44CAF00F00AB80004014000100240F4
:101540000000014000040048000800481CBCBDE841
:10155000E08F0AB1816170478162704701488068FD
:10156000704700000400002002488168027811449E
:10157000816070470400002010B50024032000F0B3
:1015800071F80F2000F008F808B1012401E000F024
:1015900025F8204610BD000070B50E4E054600240B
:1015A000307898B14FF47A71B1FBF0F00A490968CC
:1015B000B1FBF0F000F08CFF40B9102D06D20022F4
:1015C0002946501E00F02EF8756000E001242046E8
:1015D00070BD00000400002010000020094808B57C
:1015E000016E41F001010166016E01F001010091FF
:1015F000816D41F080518165806D00F080500090D8
:1016000008BD000000100240002809DB00F01F02A6
:10161000012191404009800000F1E020C0F8001154
:1016200070470000F0B40E4B1B680C46C3F3022356
:10163000C3F10705042D00D90425191D072901D27E
:10164000002300E0DB1E012606FA05F1491E2140B9
:1016500099409E40761E16403143F0BC02F05BBCC0
:101660000CED00E0064900F0070208684FF6FF03A2
:10167000184040EA0220034A104308607047000007
:101680000CED00E00000FA051649B0F5007F08688F
:10169000C0F3412009D0022805D0086820F4C060BA
:1016A00040F480600860002070470128FBD0086883
:1016B00020F4C06040F4007008600B4832220068DB
:1016C00050430A4AB0FBF2F0401C00E0401E4A6959
:1016D000520501D50028F9D148694005E3D503201A
:1016E00070470000007000401000002040420F00D2
:1016F0000248006800F4C0607047000000700040BD
:101700000248016841F48071016070470070004038
:101710000248016841F00401016070470010024076
:101720002DE9F84F0446002700889C4D3E460005F1
:1017300015D5E06B60B1B0F5000F04D0B0F5400FE7
:101740002BD001270AE0E86840F48030E86024E00C
:101750000021201D01F01CFF07001ED03E4620681E
:10176000800338D5A86D4FF00008C00009D4A86DDB
:1017700040F08050A865A86D4FF0010800F080503F
:101780000090DFF81CA2DAF8001041F48071CAF86A
:101790000010FFF7E3FE814610E0D5F88800E16B0A
:1017A00020F440000843C5F88800D8E7FFF7D6FECC
:1017B000A0EB0900022801D9032704E0DAF80000B1
:1017C000C005F3D5EFB33E46B8F1000F03D0A86DC6
:1017D00020F08050A8652078C00707D0D5F8880091
:1017E000216A20F003000843C5F8880020788007AC
:1017F00007D5D5F88800616A20F00C000843C5F8C9
:1018000088002078800607D5D5F88800A16A20F4E2
:1018100040600843C5F888002088800507D5D5F8C2
:101820008800616B20F440200843C5F888002088B8
:10183000400509D5D5F88800A16B20F44010084375
:1018400000E02EE0C5F888002078400607D5D5F8DE
:101850008800E16A20F440500843C5F888002088D9
:10186000C00507D5D5F88800216B20F44030084327
:10187000C5F8880020884FF0006780044FF080682A
:101880004ED5D5F88800216C20F040600843C5F89B
:101890008800206CB8423BD1E86840F48010E860D2
:1018A0003EE0D5F8900010F4407014D0216D8142D4
:1018B00011D0D5F89000D5F8901020F4407041F484
:1018C0008031C5F89010D5F8901021F48031C5F81A
:1018D0009010C5F89000C00711D0FFF73FFE0746F3
:1018E00041F2883907E000BFFFF738FEC11B4945C8
:1018F00001D9032668E7D5F890008007F4D5D5F81C
:101900009000216D20F440700843C5F890005BE71B
:10191000404505D10121201D01F03AFE00B10646E7
:101920002068400317D5D5F88800616C20F040602E
:101930000843C5F88800606CB84204D1E86840F4F8
:101940008010E86007E0404505D10121201D01F02D
:101950001FFE00B106462088400411D5D5F8880046
:10196000A16C20F040500843C5F88800A06CB0F18D
:10197000805F05D10221201D01F00AFE00B106465C
:101980002088000406D555F8880FE16C20F08040CF
:1019900008432860304600F005B8000000100240FF
:1019A0000070004018BCBDE8E08F00002DE9F04752
:1019B0000F46050058D0404E306800F00700B8428E
:1019C00009D2306820F0070038433060306800F0FA
:1019D0000700B84248D12878384CC0072CD0686836
:1019E000032811D0022812D0216898B14905002996
:1019F0003ADAA16821F003010143A160FFF7AEFDCF
:101A0000804641F2883910E021688901EFE72168BA
:101A10008903ECE78907EAE7FFF7A0FDA0EB0801DF
:101A2000494502D90320BDE8F087A068696800F045
:101A30000C00B0EB810FEFD12878800705D5A068A6
:101A4000A96820F0F0000843A060306800F00700AB
:101A5000B8420BD9306820F0070038433060306856
:101A600000F00700B84201D00120DCE728784007E9
:101A700005D5A068E96820F4E0600843A0602878F4
:101A8000000706D5A068296920F4605040EAC1002B
:101A9000A06000F03FF8A168094AC1F30311515C4E
:101AA00001F01F01C8400749086007480068BDE809
:101AB000F047FFF771BD0000002002400010024017
:101AC0008442000810000020080000200548064954
:101AD00000688968054AC1F30221515C01F01F01C9
:101AE000C84070471000002000100240C4420008A7
:101AF0000548064900688968054AC1F3C221515C5E
:101B000001F01F01C8407047100000200010024083
:101B1000C442000870B52549002318468A68CC687D
:101B200012F00C0204F00306214C4FEA640509D0C0
:101B30000C2A05D0042A32D0082A00D1284670BDCC
:101B4000012E10D10B681B0704D4D1F89430C3F3D5
:101B5000032302E00B68C3F30313164E56F8233039
:101B6000DAB10C2AEBD1C86800F00300022818D0C3
:101B7000032818D01846CA68CB68C2F30212C3F310
:101B800006234343521CB3FBF2F2C868C0F3416022
:101B9000401C4000B2FBF0F070BD184670BD2046FE
:101BA00070BD2046E7E72846E5E700000010024048
:101BB0000024F400944200082DE9F84304006FD09B
:101BC000FE4DA86800F00C06E86800F003072078D6
:101BD000C00664D576B10C2E01D1012F0AD0A069C0
:101BE000002828687AD040F001002860FFF7B6FC92
:101BF00080465DE02868800702D5A0690028DED015
:101C0000216A2868000703D5286800F0F00004E086
:101C1000D5F89400F02202EA1010814216D9084645
:101C200001F04CFD00283BD1286840F008002860F6
:101C30002868216A20F0F000084328606868E1699C
:101C400020F47F4040EA0120686016E0286840F0F8
:101C5000080028602868216A20F0F0000843286006
:101C60006868E16920F47F4040EA0120686026B995
:101C7000206A01F023FD0028D5D1FFF74BFFA968AA
:101C8000CF4AC1F30311515C01F01F01C840CD4997
:101C90000860CD480068FFF77FFC00287ED12EE069
:101CA000CAE000BFFFF75AFCA0EB0800022876D874
:101CB00028688007F6D5286840F008002860286862
:101CC000216A20F0F000084328606868E16920F488
:101CD0007F4040EA0120686011E0FFE720F001004A
:101CE0002860FFF73BFC804606E000BFFFF736FCAC
:101CF000A0EB08000228DAD828688007F6D42078FC
:101D0000C00740D0082E18D00C2E01D1032F14D0BC
:101D10006068B0F5803F17D0B0F5A02F286817D0C5
:101D200020F480302860286820F4802028606068D3
:101D3000E0B1FFF713FC804614E02868800322D549
:101D40006068002878D01EE0286840F48030EDE715
:101D500040F480202860F7E7FFF700FCA0EB0800C4
:101D60006428A4D828688003F6D50CE0FFF7F6FBBA
:101D7000804605E0FFF7F2FBA0EB0800642896D848
:101D800028688003F6D4207880073BD5042E11D034
:101D90000C2E01D1022F0DD0E06801E0B6E1FFE08A
:101DA000002828681ED040F480702860FFF7D6FB1A
:101DB00007460CE0286840050CD5E0680028C1D033
:101DC00008E000BFFFF7CAFBC01B022893D82868B1
:101DD0004005F7D56868217C20F0F85040EA0160A2
:101DE00068600FE020F480702860FFF7B7FB0746BB
:101DF00005E000BFFFF7B2FBC01B0228B1D828687E
:101E00004005F7D42078000729D560690028D5F867
:101E1000940012D040F00100C5F89400FFF79EFB3B
:101E2000074604E0FFF79AFBC01B022899D8D5F8B3
:101E300094008007F6D512E02BE120F00100C5F8F0
:101E40009400FFF78BFB074605E000BFFFF786FB1A
:101E5000C01B022885D8D5F894008007F6D42078D6
:101E6000400766D5A86D0027C00008D4A86D40F0D3
:101E70008050A865A86D012700F08050009053485D
:101E80000168C90512D40168814641F4807101607E
:101E9000FFF764FB804605E0FFF760FBA0EB08005E
:101EA00002287DD8D9F80000C005F5D5A068012822
:101EB00016D00528D5F8900017D020F00100C5F8FD
:101EC0009000D5F8900020F0040000BFC5F8900005
:101ED000A06841F28839C0B1FFF740FB80460FE0AF
:101EE000D5F8900040F00100F0E740F00400C5F89C
:101EF0009000F5E7FFF732FBA0EB080149454FD80A
:101F0000D5F890008007F5D50EE0FFF727FB804657
:101F100006E000BFFFF722FBA0EB080149453FD8D0
:101F2000D5F890008007F5D41FB1A86D20F080503F
:101F3000A8652078800628D5606A0028D5F8980022
:101F400012D040F00100C5F89800FFF707FB0746E4
:101F500005E000BFFFF702FBC01B022820D8D5F820
:101F600098008007F6D510E020F00100C5F8980031
:101F7000FFF7F4FA074604E0FFF7F0FAC01B022867
:101F80000ED8D5F898008007F6D4A06AA8B1022828
:101F900024D00C2E7DD0286820F08070286000E0CE
:101FA000B3E02868000103D4E86820F00300E8608B
:101FB000E86807490840E8600CE09FE00010024034
:101FC000844200081000002008000020007000403B
:101FD000FFFFEEFEFFF7C2FA044699E0E868E26A06
:101FE00000F00301914226D1216B00F0700209013B
:101FF000103991421FD1626B00F4FE41B1EB022F08
:1020000019D194F8382000F07841B1EBC26F12D1A9
:10201000A18F00F4C00249084905A1F500119142C1
:1020200009D194F8401000F0C06049084906A1F1B8
:10203000007181424BD00C2E6FD0286840016CD4C7
:10204000286820F080702860FFF788FA064604E0D0
:10205000FFF784FA801B022857D828688001F7D43C
:10206000F4E90B016FF00F0202EB01110843218A22
:102070005204490802EB4151A26841EA0221084397
:10208000217D4FF07E42490802EB41610843217BEC
:1020900000E042E040EAC160E968214A114008439B
:1020A000E860286840F080702860E86840F0807040
:1020B000E860FFF753FA044605E000BFFFF74EFA69
:1020C000001B022821D828688001F7D523E0286862
:1020D000800120D4286840F080702860E86840F0D3
:1020E0008070E860FFF73AFA044604E0FFF736FA3A
:1020F000001B022809D828688001F7D50BE000BF33
:10210000FFF72CFA001B022802D90320BDE8F88350
:1021100028688001F4D40020F8E70120F6E70000E9
:102120008C809D0170B5040009D0606A002540B123
:1021300025616561A56294F85D0040B10CE0012065
:1021400070BD6068B0F5827FF4D0E561F2E784F895
:102150005C50204600F056F8022084F85D002068AC
:10216000016821F040010160E1684FF4E0629142B2
:1021700001D9002001E04FF48050B1F5706F02D01A
:10218000914200D0A562A188228901F4827102F4F3
:1021900004421143227C02F002021143227D02F02C
:1021A00001021143228B02F400721143227F02F0DC
:1021B0003802114394F8202002F080021143228D4E
:1021C00002F40052114322681160A169042202EA5C
:1021D000114194F8242000F4805002F010021143C1
:1021E00094F8342002F008021143A28902F47062CC
:1021F00011430143206841602566012084F85D0099
:10220000002070BD10B586B0044614216846FEF764
:10221000F1FA1349206888421FD11248016E41F437
:1022200080510166016E01F480510591C16C41F04D
:102230000101C164C06C694600F001000590C22034
:1022400000900220019000200290032003900520BE
:1022500004904FF09040FFF7ABF806B010BD0000BF
:1022600000300140001002402DE9F05F044690F874
:102270005C0000270A9E1D4692468B464FF00109DE
:1022800001280ED0012084F85C00FFF767F9804632
:1022900094F85D00616801280CD0B1F5827F07D108
:1022A00002E0022000F011B9A16809B9042801D0A8
:1022B000022700E1BBF1000F24D0BAF1000F21D0BA
:1022C00005B394F85D00042802D0052084F85D0071
:1022D00000202066C4F840A0A4F84650A4F844505A
:1022E000C4F838B0E587A587E0642065E0684FF45E
:1022F000E061884201D8012D06D92068426822F4A5
:10230000805205E00127D6E02068426842F48052FE
:10231000426020680268520603D4026842F040021C
:102320000260E0688842606845D908B1012D3AD161
:10233000A06B21680088C860A06B801CA063E08F40
:10234000401EE0872FE02068816889070FD5E18F64
:1023500069B1B9F1010F0AD1A16B0988C160A06B05
:10236000801CA063E08F401EE0874FF000092068CA
:102370008168C9070FD0B4F8461061B1C068216CFC
:102380000880206C801C2064B4F84600401EA4F82D
:1023900046004FF00109FFF7E1F8A0EB0800B0425A
:1023A00001D3701C75D1E08F0028CCD1B4F8460061
:1023B0000028C8D176E008B1012D6CD1E08F01284A
:1023C000A06B08D921680088C860A06B801CA0633E
:1023D000E08F801E07E0216800780873A06B401C26
:1023E000A063E08F401EE08755E020688168890780
:1023F0001AD5E18FC1B1B9F1010F15D1E18F0129D2
:10240000A16B07D90988C160A06B801CA063E08F15
:10241000801E06E009780173A06B401CA063E08F6A
:10242000401EE0874FF0000920688168C90728D066
:10243000B4F8461029B3B4F84610012914D9C0687D
:10244000216C0880206C801C2064B4F84600801E3B
:10245000A4F84600B4F84600012810D82068416866
:1024600041F4805141600AE0007B216C0870206CCF
:10247000401C2064B4F84600401EA4F846004FF00B
:102480000109FFF76BF8A0EB0800B04202D3701C03
:1024900001D018E0BEB1E08F0028A6D1B4F8460004
:1024A0000028A2D142463146204601F045F910B13C
:1024B000012720202066012084F85D00002084F898
:1024C0005C003846EEE60327F5E730BCBDE8C09F68
:1024D00010B5401EB0F1807F01D3012010BD4FF038
:1024E000E02460610F21601701F015FD0020A0615C
:1024F00007202061002010BD704770477047000022
:10250000F0B590F83C20012A29D0012480F83C4005
:10251000022280F83D2003685A689D68114EB3423C
:1025200003D122F470074A683A4322F070070A6820
:102530003A435A600268B24205D0B2F1804F02D0ED
:10254000094B9A4204D1896825F0800319439160B0
:1025500080F83D40002180F83C100846F0BD022084
:10256000F0BD0000002C01400040014010B5040007
:1025700003D094F83D0010B107E0012010BD002009
:1025800084F83C00204600F023F8022084F83D0047
:10259000211D206801F03CFA012084F8480084F8ED
:1025A0003E0084F83F0084F8400084F8410084F83D
:1025B000420084F8430084F8440084F8450084F81D
:1025C000460084F8470084F83D00002010BD00005C
:1025D00008B50068B0F1804F12D10A48816D41F012
:1025E00001018165806D002200F00100009011461C
:1025F0001C20FFF717F8BDE808401C20FFF704B8BF
:1026000008BD00000010024090F83D10012901D0E3
:1026100001207047022180F83D100168CA6842F02D
:102620000102CA6000680B49884205D0B0F1804FB2
:1026300002D00949884207D18168084A1140062919
:1026400006D0B1F5803F03D0016841F0010101607F
:1026500000207047002C01400040014007000100AD
:1026600070B5044690F83C00012817D0012584F885
:102670003C50022084F83D00226890682E4B1840A0
:1026800020F47F4090600868502830D00DDC20286E
:102690004DD005DC98B310283BD148E0022070BD36
:1026A000302844D0402834D139E0602828D0702820
:1026B00006D0B0F5805F2CD0B0F5005F29D10AE0DC
:1026C000CB68D1E90121206801F0D8F92068816840
:1026D00041F0770109E0CB68D1E90121206801F0E0
:1026E000CDF92068816841F48041816011E0CA68B9
:1026F0004968206801F0D4F95021206807E016E00D
:10270000CA684968206801F0DCF96021206801F09E
:10271000BFF984F83D50002084F83C0070BDCA68C1
:102720004968206801F0BCF940212068EFE7226881
:1027300001461046EBE7000088FFFEFF704770B5CA
:102740000446006801694FF00005C943890715D4A4
:10275000C168C943890711D4E91E016101202077AE
:10276000206880698007204602D0FFF7E7FF04E079
:1027700000F0A7F8204600F0A5F825772068016949
:10278000C943490717D4C168C943490713D46FF037
:1027900004010161022020772068806910F4407FE5
:1027A000204602D0FFF7CAFF04E000F08AF8204676
:1027B00000F088F8257720680169C943090716D415
:1027C000C168C943090712D46FF0080101610420F0
:1027D00020772068C0698007204602D0FFF7AEFF4F
:1027E00004E000F06EF8204600F06CF825772068D1
:1027F0000169C943C90617D4C168C943C90613D4BE
:102800006FF010010161082020772068C06910F482
:10281000407F204602D0FFF791FF04E000F051F81E
:10282000204600F04FF8257720680169C943C907A1
:1028300008D1C168C943C90704D1891E0161204676
:1028400000F041F820680169C943090609D4C1684C
:10285000C943090605D46FF0800101612046FFF7E6
:102860004CFE20680169C943C90509D4C168C94340
:10287000090605D46FF4807101612046FFF73CFE24
:1028800020680169C943490609D4C168C94349069A
:1028900005D46FF040010161204600F015F8206872
:1028A0000169C94389060BD4C168C943890607D4A5
:1028B0006FF0200101612046BDE87040FFF71EBEA9
:1028C00070BD7047704770477047704770477047DA
:1028D0002DE9F04102680446D0691168936840F61A
:1028E0000F0528424FF0000505D1860678D58E06E3
:1028F00076D5616EF3E0834F03F001060F40374356
:102900007ED0C70709D0CF0507D501271762D4F8B5
:10291000802042F00102C4F8802082070AD5DA073D
:1029200008D0276802223A62D4F8802042F00402DC
:10293000C4F8802042070AD5DA0708D023680422A9
:102940001A62D4F8802042F00202C4F88020020704
:102950000CD501F02002324308D0236808221A6205
:10296000D4F8802042F00802C4F8802002050BD57C
:102970004A0109D523684FF400621A62D4F8802016
:1029800042F02002C4F88020D4F88020002A2FD002
:10299000800605D5880603D5616E09B120468847B3
:1029A000D4F8800021688968490602D410F0280F05
:1029B00020D0204601F033F920688168490614D5FB
:1029C000816821F040018160206F70B14E498163C0
:1029D000206FFEF7B4FC00280AD0206F816B01E065
:1029E0000EE02046BDE8F04108472046FFF76FFFA4
:1029F000BDE8F0812046FFF76AFFC4F88050F7E792
:102A0000276E2026012F59D1C70657D5CF0655D599
:102A1000102010622268906840062ED5216F086849
:102A200040680004000CE3D0B4F858308342DFD98A
:102A3000A4F85A0008680068800617D4106820F4CB
:102A4000807010602068816821F001018160206839
:102A5000816821F040018160E66725662068016891
:102A600021F010010160206FFEF744FCB4F858001B
:102A7000B4F85A10401A81B21CE0B4F85800B4F807
:102A80005A10401A81B2B4F85A000028B0D0002978
:102A9000AED0106820F4907010602068826822F038
:102AA00001028260E667256665662068026822F09A
:102AB000100202602046FFF708FF99E7C70209D518
:102AC0005B0207D54FF4801010622046BDE8F0414C
:102AD000FFF7FCBE030606D50B0604D5A16E002940
:102AE0007FF47FAF84E7400682D5480680D5106822
:102AF00020F040001060A6672046A56600F059F956
:102B000076E70000200100040B3C000810B504002B
:102B100002D0A06F10B107E0012010BD002084F8A2
:102B20007400204600F026F82420A0672068016881
:102B300021F001010160204601F08AF80128ECD063
:102B4000606A10B1204600F0CEFF2068416821F491
:102B5000904141602068816821F02A0181602068ED
:102B6000016841F0010101602046BDE8104001F01C
:102B70001EB8000030B59BB00446142115A8FDF71F
:102B800039FE54216846FDF735FE1A49206888420F
:102B90002ED102240025684609950094FEF7C0FD59
:102BA00008B1FEF7A5FB1448816D41F40031816541
:102BB000816D01F400311A91C16C41F00101C164D1
:102BC000C06C15A900F001001A900C2081E83100BA
:102BD00003201890072019904FF09040FEF7E8FB73
:102BE000002211462620FEF71DFD2620FEF70CFDD3
:102BF0001BB030BD00440040001002402DE9F84FEA
:102C00000446C06F9A4616460D46202870D10DB373
:102C100006B394F8740001286AD0012084F8740087
:102C20004FF00008C4F880802221E167C4F860807A
:102C30005834FEF793FC24F8026B814624F852695D
:102C40004FF4805354F80809FF21984208D12269B3
:102C50001AB11CE0012000F04DB840F2FF1116E05F
:102C60007F2290B1B0F1805F14D0A4F85C8000BFE7
:102C7000B4F85C70984201D1206990B12E460025CD
:102C800084F8748007F0FF0825E0266936B9A4F8B7
:102C90005C10EDE7216909B13F21F8E7A4F85C2059
:102CA000E6E70026ECE74B46002220212046CDF83F
:102CB00000A001F0BDF808B10320CCE72068808CAB
:102CC0008EB100EA080006F8010B00BFB4F85A0004
:102CD000401EA4F85A00B4F85A000028E3D120207E
:102CE000E0670020B7E7384025F8020BEEE7FFE782
:102CF0000220B0E718BCBDE8E08F00002DE9F843E2
:102D00000446806F1F4616460D4620284FD1CDB190
:102D1000C6B194F87400012849D0012084F87400E9
:102D20004FF00008C4F880802120A067FEF716FC51
:102D3000A4F850608146A4F85260A068B0F5805FA6
:102D400003D004E00120BDE8F883206928B12E46B5
:102D50005FF0000584F8748010E00026FAE7802117
:102D6000204601F065F8B8B9C6B116F8010B216824
:102D70000885B4F85200401EA4F85200B4F852007E
:102D80004B464FF0000200970028E8D14FF0400179
:102D9000204601F04DF830B10320D4E735F8020B9E
:102DA000C0F30800E3E72020A0670020CBE7022063
:102DB000C9E77047FEE7000030B587B014216846C8
:102DC000FDF718FD1A48C16C41F00401C164C16CE3
:102DD00001F004010591C16C41F00101C164C06CB6
:102DE0004FF0904500F001000590002241F60111DE
:102DF0002846FEF7AEFB012220212846FEF7A9FB5C
:102E000041F62110009001200024CDE901040220A8
:102E1000039069462846FEF7CBFA4FF4C060CDE92F
:102E20000004694628460294FEF7C2FA07B030BD96
:102E300000100240124810B5104901604FF4827131
:102E4000416000214FF4E062C0E902124FF40072C9
:102E50000161C0E905123022C2618022C0E9082167
:102E60000722C0E90A12016308214163FFF75AF9FA
:102E7000002801D072B6FEE710BD0000003001400E
:102E80005400002010B588B0002417480094019425
:102E900002940394049405944FF0804106940160D9
:102EA0004FF43471C0E9011440F2CF71C0E903144A
:102EB0008461FFF75BFB08B172B6FEE74FF4805008
:102EC000009069460848FFF7CBFB08B172B6FEE7F1
:102ED000049404A904480694FFF712FB002801D0CB
:102EE00072B6FEE708B010BDB80000200C4810B55F
:102EF0000A4901604FF416514160002181600C22A3
:102F0000C160C0E904128161C16101624162FFF7E1
:102F1000FDFD002801D072B6FEE710BD0044004060
:102F200004010020FEE7000070B506221CA11E4827
:102F300001F08AF94FF400654FF090464FF4FA74AF
:102F400040B1002229463046FEF703FB23460B2200
:102F500016A118E0072218A1134801F075F940B135
:102F6000012229463046FEF7F4FA23460C2214A12A
:102F700009E017A10C48FDF7DDFB0B48FDF7BBFB93
:102F8000094982B223461348FFF7B8FE32210648AA
:102F9000FDF70EFC104900204870087070BD00005D
:102FA0004C4544204F4E0000200000204C4544205A
:102FB0006973204F4E2E0A004C4544204F46460070
:102FC0004C4544206973204F46462E0A00000000FD
:102FD0000A0D00000401002000000020FEE70000B0
:102FE0002DE9F047C0B00F4604469146D420DDE9F4
:102FF00048218DF800001E46DDF828A18DF80170EB
:1030000000206D4606E0135C05EB000C401C8CF8BC
:103010000230C0B28842F6D3891C8AB229462046C3
:1030200000F078FA4FF0FF3820B12069804720A0E7
:1030300061690FE0E1685046884708B3626806217D
:10304000684690471F4900200A5C2B5C9A4203D0D7
:1030500061691DA0884713E0401CC0B20628F3D365
:10306000E1685046884758B1B01C82B26946204694
:1030700000F082F801469DF80000D52809D103E050
:10308000404640B0BDE8F0879DF801007F1CB84283
:1030900002D018A06169DDE7002005E02A189378C6
:1030A00009F80030401CC0B2B042F7D3881EE8E7F0
:1030B000547279696E6720746F2077616B657570E3
:1030C000000000007E420008446964206E6F742096
:1030D000726563656976652065787065637465649B
:1030E0002041434B2066726F6D20504E35333221A4
:1030F00000000000526563656976656420756E6541
:103100007870656374656420636F6D6D616E6420B3
:10311000726573706F6E7365210000003EB50446E2
:1031200000204FF4FA720090CDE901020A46042310
:1031300002212046FFF754FF401C01D000203EBD75
:10314000616902A088474FF0FF303EBD4661696C5F
:10315000656420746F2064657465637420746865A9
:1031600020504E3533320000014601A0FDF75CB916
:1031700025730D0A000000002DE9F04105460026E8
:10318000D01D14468846C2B081B26A68684690472E
:103190000020471E6946083406E0401CC0B2A04229
:1031A00002D31EA0696927E00A5C002AF5D0D2B2DA
:1031B000FF2AF6D1401CC3B2A34202D324A06969FE
:1031C0001AE0C818CA5C4078104410F0FF0F02D013
:1031D00026A0696910E00020541C08E003EB000CF5
:1031E0008C44401C9CF802C0C0B26644F6B2A042B7
:1031F000F4D336B1696929A08847384642B0BDE8A2
:10320000F081002006E01C180C44A57808F8005056
:10321000401CC0B29042F6D31046EFE7526573707F
:103220006F6E7365206672616D6520707265616D89
:10323000626C6520646F6573206E6F7420636F6EBF
:103240007461696E203078303046462100000000FD
:10325000526573706F6E736520636F6E7461696E13
:1032600073206E6F20646174612100005265737079
:103270006F6E7365206C656E677468206368656344
:103280006B73756D20646964206E6F74206D61745A
:103290006368206C656E6774682100005265737006
:1032A0006F6E736520636865636B73756D20646909
:1032B00064206E6F74206D6174636820657870653A
:1032C0006374656420636865636B73756D000000EB
:1032D00070B504461AA08AB000680D46089008A987
:1032E0008DF8212000910220CDE90103132303AAC8
:1032F0004A212046FFF774FE4FF0FF36002802DA1D
:1033000030460AB070BD9DF80C00012802D00DA017
:10331000616905E09DF81100072803D9616911A0D2
:103320008847EDE7002003A904E00A1892792A549F
:10333000401CC0B29DF811208242F6D8D0B2E0E71E
:10334000010000004D6F7265207468616E206F6E21
:1033500065206361726420646574656374656421CB
:1033600000000000466F756E642063617264207710
:1033700069746820756E65787065637465646C79CE
:10338000206C6F6E672055494421000070B5012202
:1033900014024FF0904521462846FEF7DAF86420E3
:1033A000FDF7F4FF002221462846FEF7D2F84FF43D
:1033B000FA70FDF7EBFF012221462846FEF7C9F817
:1033C0006420FDF7E3FF002070BD000006490160A6
:1033D00006494160064981600649C16006490161AC
:1033E0000649416100F04CB88D33000801340008F3
:1033F000B534000841340008813400086931000800
:1034000070B506460C46481CFCF740FF05460320F5
:1034100028700520FDF7BAFF601CC1B2284600F0F5
:10342000F1FE002004E0291849783154401CC0B254
:10343000A042F8D32846FCF758FF002070BD0000DA
:1034400038B505460DA000680090FEF787F80446E1
:103450000DE00A20FDF79AFF0221684600F0D2FE37
:103460009DF80100012808D00520FDF78FFFFEF729
:1034700075F8001BA842ECD3002038BD0200000004
:1034800038B500204FF47A7400902046FDF77EFF97
:10349000002220214FF09040FEF75BF80220FDF75C
:1034A00075FF0121684600F0ADFE2046FDF76EFF76
:1034B000002038BD70B506460C46481CFCF7E6FEF9
:1034C000054601202870002004E0315C2A18401CC9
:1034D0005170C0B2A042F8D3641CE1B2284600F09B
:1034E00091FE2846FCF701FF002070BD1FB508A122
:1034F0004FF47A7309680391032203A98DE80E0043
:1035000000231A461421FFF76BFD04B0002010BD04
:1035100001140100F0B50746501EC3B04FF0FF354F
:10352000FF2831D200248DF800408DF80140FF20A3
:103530008DF80200A44620466E46335C401C2344AE
:10354000C0B2DCB20328F8D3D043401C8DF803206E
:103550008DF80400002309E006EB030EC85C8EF82A
:103560000500C85C5B1C2044C4B2DBB29342F3D3B9
:10357000E143B018D21D417180F806C091B2BA681B
:1035800030469047002800D0284643B0F0BD704731
:103590002DE9F041444C05468846E0680026810745
:1035A00028680DD0E16801F00301814216D1A8B16D
:1035B000E0686968C0F30210401C88420ED120E028
:1035C000012804D0022805D0032807D108E021688B
:1035D000890701E021684905002907DB01265FE032
:1035E0002168890302D421684903F5E7E1686A6824
:1035F0006FF00F0321F0730103EB0212114301433B
:10360000E160206820F080602060FDF7A7FF07469A
:1036100005E000BFFDF7A2FFC01B022837D82068D5
:103620000001F7D4B8F1000F18D0B8F1010F1DD088
:10363000287D4FF07E41400801EB4060A96840EAD8
:1036400001202169194A114008432061206840F097
:1036500080602060FDF782FF07461AE0A868297B9A
:10366000000240EAC1602169114AECE7288A114949
:10367000400801EB4050A96840EA012021690E4A48
:10368000E1E700BFFDF76AFFC01B022801D903264E
:1036900006E020680001F5D52069A969084320618A
:1036A0003046BDE8F081000000100240FF80FFF9C5
:1036B000FF80FF070000E0FFFF809FFFF8B51C4D73
:1036C00006460024A86DC00002D5FEF711F80DE0F3
:1036D000A86D40F08050A865A86D00F08050009063
:1036E000FEF706F8A96D21F08051A965B0F5007FBD
:1036F00004D0802E07D94FF003040AE0802E08D9A9
:10370000A02E01D804E001D1022402E0702E00D1E5
:1037100001240848016821F0070121430160006885
:1037200000F00700A04201D00120F8BD0020F8BD44
:103730000010024000200240F8B515460E460B4628
:103740000092044600224FF4C05100F019F888B9E5
:103750003346002280212046009500F07BF848B9CE
:10376000334600224FF4C0612046009500F008F86F
:10377000002804D0206E40F0200020660320F8BD11
:103780002DE9FC47994617460E4604460A9DFDF76B
:10379000E5FE411BA9EB0105FDF7E0FE80462A4846
:1037A0004FF4C06A0068C0EBC00000EB8000000D61
:1037B0006843009040E0564502D10FB9007B01906C
:1037C000B9F1FF3F38D0FDF7C9FEA0EB0800A842D1
:1037D00003D215B1009860B32CE02068416821F055
:1037E000E00141606068B0F5827F0BD1A068B0F560
:1037F000004F02D0B0F5806F04D12068016821F03D
:1038000040010160A06AB0F5005F09D1206801683D
:1038100021F4005101602068016841F40051016009
:10382000012084F85D00002084F85C00032000F093
:103830000DB80025401E0090206881683140B942D3
:10384000B9D10020F3E70000100000200CBCBDE857
:10385000F08700002DE9F8431E469146884604464D
:10386000089DFDF77BFE401B351AFDF777FE0746E6
:1038700025480068C0F3CB30684338E0701C37D06F
:10388000FDF76CFEC01BA84203D215B1009860B3CF
:103890002CE02068416821F0E00141606068B0F5EB
:1038A000827F0BD1A068B0F5004F02D0B0F5806FD9
:1038B00004D12068016821F040010160A06AB0F5E0
:1038C000005F09D12068016821F40051016020687F
:1038D000016841F400510160012084F85D0000207E
:1038E00084F85C000320BDE8F8830025401E0090AA
:1038F0002068816838EA010004D000214945BDD123
:103900000020F0E70121F9E7100000207047FDF7E3
:103910002BBE000010B596B044216846FCF76AFF44
:10392000142111A8FCF766FF4FF40070FDF7ACFE00
:1039300008B172B6FEE7FDF7E3FE184850F8901F95
:1039400021F0180101601420009001200290002451
:1039500060210690CDE907410221CDE90A100C90C3
:1039600024200D900720CDE90E0168461091FEF746
:1039700023F908B172B6FEE70F2011900320CDE9BC
:1039800012041494042111A81594FEF70FF808B13D
:1039900072B6FEE7FDF7BCFE16B010BD0010024087
:1039A0000B48016841F4700101600A48016841F068
:1039B00001010160002181600268074B1A4002602A
:1039C0008214C260026822F4802202608161704722
:1039D00088ED00E000100240FFFFF6EA10B509484C
:1039E000FCF789FE084910B10878401C0870087877
:1039F000052801D9FFF798FABDE810400348FEF703
:103A00009EBE00002000002000000020B800002022
:103A100070B50268164B4FF08046984201D0B04214
:103A200003D122F070044A682243124C124D98428E
:103A300005D0B04203D0A04201D0A84203D122F465
:103A40004076CA6832434E6922F0800232430260F7
:103A50008A68C2620A688262984203D0A04201D09A
:103A6000A84201D1096901630121416170BD0000D3
:103A7000002C0140004001400044014010B5846822
:103A800042EA032224F47F440A432243826010BDA9
:103A9000826822F070020A4342F007018160704799
:103AA00010B5036A046A24F001040462846924F0F6
:103AB000F00444EA021423F00A020A438461026219
:103AC00010BD10B5036A23F0100303628369046A12
:103AD00023F4704343EA023224F0A00343EA0111C5
:103AE0008261016210BD90F82410C90706D00168F8
:103AF0004A68836A22F400321A434A6090F824101C
:103B0000890706D501684A68C36A22F480321A43DD
:103B10004A6090F82410490706D501684A68036B8B
:103B200022F480221A434A6090F82410090706D52F
:103B300001684A68436B22F400421A434A6090F8D5
:103B40002410C90606D501688A68836B22F4805266
:103B50001A438A6090F82410890606D501688A689D
:103B6000C36B22F400521A438A6090F8241049066D
:103B700011D501684A68036C22F480121A434A6026
:103B8000016CB1F5801F06D101684A68436C22F4CC
:103B9000C0021A434A6090F82410090606D501684D
:103BA0004A68806C22F4002202434A607047F8B5EC
:103BB00000260446C0F88060FDF7D0FC054620686A
:103BC00000686FF07E47000708D52B4600224FF4AF
:103BD00000112046009700F02BF960B920680068BA
:103BE00040070AD52B4600224FF48001204600975B
:103BF00000F01EF908B10320F8BD2020A067E0679F
:103C0000266684F874600020F8BD10B5806A002133
:103C1000A0F85A10A0F85210FEF759FE10BD016826
:103C20000A6822F490720A6001688A6822F0010230
:103C30008A60016E012904D101680A6822F010022D
:103C40000A602021C16700210166416670470000BB
:103C50002DE9F041044600682269A168E669114334
:103C600062690025324311436A4B02686A4E324052
:103C70000A43026020684168E26821F44051114320
:103C800041602168A069994201D0226A10438A6884
:103C900022F4306202438A606049276860488F429C
:103CA0000DD1D0F8880010F0030006D0012838D0DC
:103CB000022834D0032821D135E001211FE05949E1
:103CC0008F420BD1D0F8880010F00C0025D00428CA
:103CD00027D0082823D00C2810D124E09F420DD1F2
:103CE000D0F8880010F4406017D0B0F5806F18D07D
:103CF000B0F5006F13D0B0F5406F14D010214A48D2
:103D000000264FF400429F422DD171B1022912D0FA
:103D100004290DD0082971D123E00021EFE7022109
:103D2000EDE70421EBE70821E9E7FDF7CFFE01E02D
:103D3000FDF7F0FEE8B3626802EB420181425DD814
:103D4000B0EB023F5AD8010E030250081818714117
:103D50000023FCF7F1FA354AA0F54071914251D9A0
:103D60004CE01046E7E7E3694FF6EF77934229D13D
:103D7000092943D2DFE801F005080E420B42424216
:103D80002400FDF7A3FE04E0FDF7B2FE01E0FDF71D
:103D9000C1FE70B14100606801EB5001B1FBF0F071
:103DA00080B2A0F11001B94228D84FF6F07101405D
:103DB00000E029E0C0F3420001432068C16023E035
:103DC0001046E7E7092919D2DFE801F005080E18C7
:103DD0000B1818181A00FDF779FE04E0FDF788FEAD
:103DE00001E0FDF797FE78B1616800EB5100B0FB90
:103DF000F1F080B2A0F11001B94203D9012503E02E
:103E00001046F1E72168C86066662846A666BDE8E8
:103E1000F081000000800040F369FFEF00380140AE
:103E200000100240004400400024F400FFFC0F009A
:103E30002DE9F0479A4617460E4604464FF0000912
:103E40004FF02008089D39E0681C37D0FDF786FB4D
:103E5000A0EB0A00A84222D80DB3206801684907E8
:103E60002CD5C069C043000528D421684FF40060F8
:103E700008622068016821F4D071016020688168BF
:103E800021F001018160C4F87880C4F87C80C4F816
:103E9000808000BF84F874900320BDE8F08720681C
:103EA000016821F4D07101602068816821F001016E
:103EB0008160C4F87880C4F87C80EBE72068C06932
:103EC00036EA000004D00020B842BDD00020E4E76C
:103ED0000120F9E770B50D4C0B4D0A232078012223
:103EE0002918401C20700A48FEF788FE20782844D4
:103EF00010F8010C0A2801D1FFF716F8BDE8704050
:103F00000348FEF7E5BC000020000020010000206F
:103F100004010020FEE70907090E002804DB00F178
:103F2000E02080F80014704700F00F0000F1E0205E
:103F300080F8141D704730380A2801D201207047DC
:103F4000002070478A68002A01DCFCF78DBE521EF3
:103F50008A604A68C0B2531C4B6010707047000002
:103F6000DCB0FDF709FBFFF7D5FCFEF725FFFEF7F8
:103F700061FFFEF787FFFEF7B9FFC820FDF706FADD
:103F800001224FF0904411032046FDF7E2FA4FF46E
:103F90007A752846FDF7FAF932217248FCF708FCD9
:103FA0007148FEF731FB70484C300068016841F001
:103FB0002001016047A8FFF709FA694647A8FFF703
:103FC000ADF842F210764FF4006BF8B1202267A1F1
:103FD0004DA8FCF7BBFB5F462546634833461F22CE
:103FE0004DA94C30FEF78AFE01223C463946284650
:103FF000FDF7AFFAFA20FDF7C9F90022214628465D
:10400000FDF7A7FAFA20FDF7C1F9E6E724225FA140
:104010004DA8FCF79BFB5448334624224DA94C3055
:10402000FEF76CFE47A8FFF761FA0027A9464FF498
:10403000FA7A419742974B46002241A947A84397F5
:10404000FFF746F90646401CF3D00D208DF84C01D1
:1040500045485346012253A94C30FEF74FFE00223B
:1040600059462046FDF775FA002201212046FDF74A
:1040700070FA32213B48FCF79BFB00250DF5827856
:104080000DE04597469718F8052049A145A8FCF78B
:10409000D7F945A93348FCF74DFB6D1CEDB2B5428D
:1040A000EFDB45A04DAB07C883E8070045A050AB48
:1040B00007C883E807000A2250A941A8FCF7EFFAD5
:1040C00058B30A224DA941A8FCF7E9FA28B31422F3
:1040D0003FA154A8FCF73AFB23485546534611220A
:1040E00054A94C30FEF70AFE1F482B46012253A963
:1040F0004C30FEF703FE012211462046FDF729FA57
:104100004D464846FDF742F9002201212046FDF7C1
:1041100020FA2846FDF73AF98BE7202231A154A86E
:10412000FCF714FB104855465346202254A94C3046
:10413000FEF7E4FD0C482B46012253A94C30FEF754
:10414000DDFD01225D4659462046FDF702FA4E4646
:104150004846FDF71BF9002229462046FDF7F9F9EC
:104160003046D7E720000020B80000200D4552520D
:104170004F5220434F4E4E454354494E4720544FD3
:104180002053454E534F52310A0D00000D535543F5
:104190004345535320434F4E4E454354494F4E20C1
:1041A000544F204E46432053454E534F520A0D0064
:1041B0002530325820000000D95E35BB00000000D9
:1041C000000000004BC84FC10000000000000000CC
:1041D0004163636573732044656E696564210A0DEC
:1041E00000000000416363657373204772616E7461
:1041F00065642C2057656C636F6D65204261636B4D
:10420000210A0D00F8B50D4604464FF090460022F5
:1042100020213046FDF79DF90120FDF7B7F80A206F
:10422000224600902B4611460648FEF71DF8012055
:10423000FDF7ACF83046BDE8F84001222021FDF73B
:1042400088B900005400002070B50024234609E01E
:10425000C55CCE5CB54202D1641CE4B200E000242F
:104260005B1CDBB29342F3D3944201D1012070BDB9
:10427000002070BD4FF04070E1EE100A7047000062
:10428000FF00FF0000000000000000000102030426
:1042900006070809A0860100400D0300801A0600E9
:1042A00000350C0040420F0080841E0000093D00D4
:1042B00000127A000024F40000366E010048E80184
:1042C000006CDC02000000000102030430313233D4
:1042D000343536373839414243444546403058003A
:1042E000303132333435363738396162636465666C
:1042F00040307800040000080000000000000002C8
:1043000000010000103A7474003A7474003A747436
:1043100000000000344300080000002020000000DE
:10432000C80100085443000820000020C80800000D
:10433000E40100080000000001000000100000007F
:104340000000000000093D00000000000000000027
:044350000000000069
:040000050800018D61
:00000001FF
