:020000040800F2
:10000000880700202D0200086B1D00080D1C000849
:10001000691D000823040008B9240008000000003E
:10002000000000000000000000000000191F000890
:1000300025040008000000006D1D00081B1F0008BB
:10004000470200084702000847020008470200086C
:10005000470200084702000847020008470200085C
:10006000470200084702000847020008470200084C
:10007000470200084702000847020008470200083C
:10008000470200084702000847020008470200082C
:10009000470200084702000847020008470200081C
:1000A000470200084702000847020008470200080C
:1000B000470200080000000000000000470200089E
:1000C000470200080000000000000000470200088E
:1000D00000000000AD2400084702000800000000F6
:1000E000470200084702000800000000000000006E
:1000F0000000000000000000000000000000000000
:10010000000000000000000000000000470200089E
:10011000000000000000000047020008470200083D
:10012000470200084702000847020008470200088B
:10013000470200080000000000000000000000006E
:10014000470200084702000847020008470200086B
:10015000470200084702000847020008470200085B
:10016000470200084702000847020008000000009C
:1001700047020008470200080000000000000000DD
:1001800047020008470200084702000800F002F892
:1001900000F03CF80AA090E8000C82448344AAF1E5
:1001A0000107DA4501D100F031F8AFF2090EBAE8E3
:1001B0000F0013F0010F18BFFB1A43F0010318479B
:1001C000D0270000F0270000103A24BF78C878C17B
:1001D000FAD8520724BF30C830C144BF04680C604D
:1001E000704700000023002400250026103A28BF95
:1001F00078C1FBD8520728BF30C148BF0B60704799
:100200001FB502F09CFB1FBD10B510BD00F0CFF86C
:100210001146FFF7F5FF02F017FA00F0EDF803B40E
:10022000FFF7F2FF03BC00F0F5F800000948804733
:1002300009480047FEE7FEE7FEE7FEE7FEE7FEE7C8
:10024000FEE7FEE7FEE7FEE704480549054A064BE0
:1002500070470000AD1F00088D01000888010020D4
:1002600088070020880300208803002053EA020C3E
:1002700000F069802DE9F04B4FF00006002B1FBF06
:10028000B3FA83F503FA05F424FA05F65E4012BFCB
:100290001643B2FA82F502FA05F4C5F120051EBF35
:1002A00022FA05FC44EA0C04203556EA044C4FEAD5
:1002B000144418BF641C4FF000084FF0000990422E
:1002C00071EB030C39D3002919BFB1FA81F701FA98
:1002D00007F6B0FA80F700FA07F6C7F120071EBF4D
:1002E00020FA07FC46EA0C062037B6FBF4FCA7EB25
:1002F0000507103F07F01F0BCBF120060CFA0BFB94
:100300002CFA06F644BFB3460026202FA4BF5E4653
:100310004FF0000B5BEA060C08BF4FF0010B19EB26
:100320000B09ABFB027C48EB0608C01B06FB02CCAA
:100330000BFB03CC71EB0C01C1E70B4602464146B7
:100340004846BDE8F08B13B54FF000004FF00001B8
:10035000AFF30080BDE81C4070474FF0000200B5CD
:10036000134694469646203922BFA0E80C50A0E8D8
:100370000C50B1F12001BFF4F7AF090728BFA0E886
:100380000C5048BF0CC05DF804EB890028BF40F852
:10039000042B08BF704748BF20F8022B11F0804F94
:1003A00018BF00F8012B70477047704770477546BB
:1003B00000F02CF8AE4605006946534620F00700D1
:1003C000854618B020B5FFF73FFFBDE820404FF04D
:1003D00000064FF000074FF000084FF0000B21F02F
:1003E0000701AC46ACE8C009ACE8C009ACE8C009FC
:1003F000ACE8C0098D46704710B50446AFF30080E5
:100400002046BDE81040FFF70ABF000000487047D3
:100410002801002001491820ABBEFEE7260002009B
:100420007047FEE7704772B6FEE7000070B500F057
:1004300077F8074D00244FF47A76291933460122C4
:10044000044801F087FB641CE4B2072CF5D370BDAF
:100450001A000020A400002070B50E4E00244FF4B6
:100460007A7531192B4601220B4801F073FB641C8D
:10047000E4B2062CF5D3074E0024193631192B4669
:100480000122054801F066FB641CE4B2072CF5D399
:1004900070BD000008000020A400002070B500F02E
:1004A0003FF8074D002442F2107629193346012205
:1004B000044801F04FFB641CE4B2062CF5D370BD78
:1004C0000E000020A400002070B500F029F8074DB0
:1004D00000244FF47A76291933460122044801F0AA
:1004E00039FB641CE4B2062CF5D370BD1400002067
:1004F000A400002070B500F013F8074D00244FF45D
:100500007A76291933460122044801F023FB641C42
:10051000E4B20B2CF5D370BD34000020A400002001
:1005200070B5074D002442F2107629193346012296
:10053000044801F00FFB641C062CF6DB70BD0000C4
:1005400008000020A40000202DE9F0414FF4FA66D5
:10055000304600F0E9F839A002F06BF8304600F0C0
:10056000E3F801F0FBFFFFF799FF394F394D40F2F7
:10057000DC58787AA7F1280400284FF0640014D0E2
:1005800000F0D2F834A002F054F8012211462846B7
:1005900000F0B2F9404600F0C7F8002201212846D9
:1005A00000F0AAF9E078401C45E000F0BDF8FFF744
:1005B0003DFF642000F0B8F80C2000F05DF8FFF774
:1005C00099FF642000F0B0F8102000F055F8787A18
:1005D00000284FF064001BD000F0A6F81EA002F027
:1005E00028F8E0780122401CE0701146284600F00F
:1005F00083F9404600F098F800220121284600F0D7
:100600007BF9304600F090F8BDE8F04101F0A6BF5C
:1006100000F08AF814A002F00CF80122022128460A
:1006200000F06AF9404600F07FF8002202212846D7
:1006300000F062F90020E070E3E70000506C6163B5
:100640006520796F75722066696E6765722000009B
:100650002800002000040048416363657373204450
:10066000656E6965642000004163636573732047AC
:1006700072616E74656420004FF47A730C22024933
:10068000024801F0E7B9000028000020A400002083
:1006900010B590F825100022022905D00421C1636D
:1006A00080F82420012010BD01680B6823F00E03A0
:1006B0000B6001680B6823F001030B6090F8441095
:1006C000046C01F01C03012101FA03F3636080F85C
:1006D000251080F82420104610BD10B590F8251084
:1006E0000024022903D00421C16301241AE0016817
:1006F0000A6822F00E020A6001680A6822F001020C
:100700000A6090F84410036C01F01C02012101FA08
:1007100002F25A6080F82510002180F82410816BC5
:1007200001B18847204610BD70B5044600F0EAF8D4
:100730000546601C02D004480078044400F0E2F84A
:10074000401BA042FAD370BD480000202DE9FC4FA9
:10075000DFF880A1002301250AF1040B03244FF0E8
:100760000F0C0BF1040EAEE005FA03F632406FD029
:100770004F68012F05D0022F03D0112F01D0122F67
:1007800017D1D0F808905F0004FA07F829EA0809A1
:100790000097D1F80C8008FA07F848EA0908C0F871
:1007A00008804768B7430E79C6F300169E403E4363
:1007B0004660C6684FEA430804FA08F7BE4301974B
:1007C0008F6807FA08F73743C7604E68022E01D0DA
:1007D000122E13D1DE0800EB86060096366A5F07FC
:1007E000FF0E0CFA07F926EA0906D1F8109009FA6B
:1007F00007F949EA0609009EC6F820900768019E9D
:10080000B7430E7906F0030606FA08F63E43066083
:100810004E68F60056D5304E376E47F00107376602
:10082000366E23F0030706F0010600962B4E3E4479
:10083000B146B6689F074FEA17780CFA08F7BE432F
:10084000B0F1904F05D0264FB84204D1012708E0FF
:1008500038E0002705E0234FB84201D1022700E02D
:10086000072707FA08F73743C9F80870DAF8006075
:100870005746D1F8048096435FEAC83800D516433E
:100880003E60DBF800605F46D1F8048096435FEA83
:10089000883800D516433E60DEF800607746D1F810
:1008A000048096435FEAC82800D516433E60094F8E
:1008B0000C373E68D1F8048096435FEA882800D55B
:1008C00016433E605B1C0A6832FA03F67FF44CAFB5
:1008D00000F00AB80004014000100240000001408E
:1008E00000040048000800481CBCBDE8E08F006917
:1008F000084000D0012070470AB1816170478162D1
:1009000070470000014880687047000048000020E0
:1009100002488168027811448160704748000020D5
:1009200010B50024032000F071F80F2000F008F843
:1009300008B1012401E000F025F8204610BD0000B8
:1009400070B50E4E05460024307898B14FF47A7198
:10095000B1FBF0F00A490968B1FBF0F000F0B6FD18
:1009600040B9102D06D200222946501E00F02EF864
:10097000756000E00124204670BD000048000020A2
:1009800054000020094808B5016E41F001010166DC
:10099000016E01F001010091816D41F0805181658E
:1009A000806D00F08050009008BD000000100240F3
:1009B000002809DB00F01F0201219140400980005E
:1009C00000F1E020C0F8001170470000F0B40E4BB9
:1009D0001B680C46C3F30223C3F10705042D00D99D
:1009E0000425191D072901D2002300E0DB1E012682
:1009F00006FA05F1491E214099409E40761E164098
:100A00003143F0BC01F059BD0CED00E0064900F0A7
:100A1000070208684FF6FF03184040EA0220034A25
:100A200010430860704700000CED00E00000FA057C
:100A30001649B0F5007F0868C0F3412009D00228AC
:100A400005D0086820F4C06040F480600860002091
:100A500070470128FBD0086820F4C06040F40070A3
:100A600008600B483222006850430A4AB0FBF2F09B
:100A7000401C00E0401E4A69520501D50028F9D10A
:100A800048694005E3D5032070470000007000402E
:100A90005400002040420F000248006800F4C0608B
:100AA00070470000007000400248016841F4807106
:100AB00001607047007000400248016841F0040185
:100AC00001607047001002402DE9F84F04460027EE
:100AD00000889C4D3E46000515D5E06B60B1B0F531
:100AE000000F04D0B0F5400F2BD001270AE0E868D2
:100AF00040F48030E86024E00021201D01F038F946
:100B000007001ED03E462068800338D5A86D4FF000
:100B10000008C00009D4A86D40F08050A865A86DF9
:100B20004FF0010800F080500090DFF81CA2DAF8C6
:100B3000001041F48071CAF80010FFF7E3FE81460F
:100B400010E0D5F88800E16B20F440000843C5F8B8
:100B50008800D8E7FFF7D6FEA0EB0900022801D9EC
:100B6000032704E0DAF80000C005F3D5EFB33E46F2
:100B7000B8F1000F03D0A86D20F08050A865207850
:100B8000C00707D0D5F88800216A20F00300084389
:100B9000C5F888002078800707D5D5F88800616AF5
:100BA00020F00C000843C5F888002078800607D59F
:100BB000D5F88800A16A20F440600843C5F8880091
:100BC0002088800507D5D5F88800616B20F4402087
:100BD0000843C5F888002088400509D5D5F8880065
:100BE000A16B20F44010084300E02EE0C5F8880017
:100BF0002078400607D5D5F88800E16A20F44050F7
:100C00000843C5F888002088C00507D5D5F88800B6
:100C1000216B20F440300843C5F8880020884FF04D
:100C2000006780044FF080684ED5D5F88800216CAD
:100C300020F040600843C5F88800206CB8423BD1E2
:100C4000E86840F48010E8603EE0D5F8900010F4C9
:100C5000407014D0216D814211D0D5F89000D5F8A4
:100C6000901020F4407041F48031C5F89010D5F810
:100C7000901021F48031C5F89010C5F89000C0079D
:100C800011D0FFF73FFE074641F2883907E000BF69
:100C9000FFF738FEC11B494501D9032668E7D5F89F
:100CA00090008007F4D5D5F89000216D20F44070B5
:100CB0000843C5F890005BE7404505D10121201DA0
:100CC00001F056F800B106462068400317D5D5F864
:100CD0008800616C20F040600843C5F88800606CB3
:100CE000B84204D1E86840F48010E86007E040456D
:100CF00005D10121201D01F03BF800B106462088F6
:100D0000400411D5D5F88800A16C20F0405008436C
:100D1000C5F88800A06CB0F1805F05D10221201DCC
:100D200001F026F800B106462088000406D555F8E3
:100D3000880FE16C20F0804008432860304600F0C6
:100D400005B80000001002400070004018BCBDE86B
:100D5000E08F00002DE9F0470F46050058D0404EC7
:100D6000306800F00700B84209D2306820F0070070
:100D700038433060306800F00700B84248D1287826
:100D8000384CC0072CD06868032811D0022812D034
:100D9000216898B1490500293ADAA16821F00301D8
:100DA0000143A160FFF7AEFD804641F2883910E0B3
:100DB00021688901EFE721688903ECE78907EAE701
:100DC000FFF7A0FDA0EB0801494502D90320BDE8CB
:100DD000F087A068696800F00C00B0EB810FEFD1DC
:100DE0002878800705D5A068A96820F0F00008439E
:100DF000A060306800F00700B8420BD9306820F0DE
:100E0000070038433060306800F00700B84201D076
:100E10000120DCE72878400705D5A068E96820F4C0
:100E2000E0600843A0602878000706D5A06829691B
:100E300020F4605040EAC100A06000F03FF8A168D3
:100E4000094AC1F30311515C01F01F01C840074971
:100E5000086007480068BDE8F047FFF771BD000073
:100E600000200240001002404829000854000020E1
:100E70004C0000200548064900688968054AC1F30E
:100E80000221515C01F01F01C8407047540000204E
:100E90000010024088290008054806490068896852
:100EA000054AC1F3C221515C01F01F01C8407047DF
:100EB00054000020001002408829000870B5254920
:100EC000002318468A68CC6812F00C0204F003066E
:100ED000214C4FEA640509D00C2A05D0042A32D0EF
:100EE000082A00D1284670BD012E10D10B681B07BF
:100EF00004D4D1F89430C3F3032302E00B68C3F3A6
:100F00000313164E56F82330DAB10C2AEBD1C86819
:100F100000F00300022818D0032818D01846CA6829
:100F2000CB68C2F30212C3F306234343521CB3FB44
:100F3000F2F2C868C0F34160401C4000B2FBF0F020
:100F400070BD184670BD204670BD2046E7E72846B4
:100F5000E5E70000001002400024F40058290008D2
:100F60002DE9F84304006FD0FE4DA86800F00C0690
:100F7000E86800F003072078C00664D576B10C2E2F
:100F800001D1012F0AD0A069002828687AD040F04A
:100F900001002860FFF7B6FC80465DE02868800706
:100FA00002D5A0690028DED0216A2868000703D591
:100FB000286800F0F00004E0D5F89400F02202EA7E
:100FC0001010814216D9084600F068FF00283BD176
:100FD000286840F0080028602868216A20F0F000A6
:100FE000084328606868E16920F47F4040EA0120F6
:100FF000686016E0286840F0080028602868216AC8
:1010000020F0F000084328606868E16920F47F4020
:1010100040EA0120686026B9206A00F03FFF0028FE
:10102000D5D1FFF74BFFA968CF4AC1F30311515C3B
:1010300001F01F01C840CD490860CD480068FFF7A6
:101040007FFC00287ED12EE0CAE000BFFFF75AFCEB
:10105000A0EB0800022876D828688007F6D5286813
:1010600040F0080028602868216A20F0F00008435A
:1010700028606868E16920F47F4040EA01206860E8
:1010800011E0FFE720F001002860FFF73BFC8046FD
:1010900006E000BFFFF736FCA0EB08000228DAD814
:1010A00028688007F6D42078C00740D0082E18D0D2
:1010B0000C2E01D1032F14D06068B0F5803F17D0FB
:1010C000B0F5A02F286817D020F480302860286859
:1010D00020F4802028606068E0B1FFF713FC8046B0
:1010E00014E02868800322D56068002878D01EE0CC
:1010F000286840F48030EDE740F480202860F7E76E
:10110000FFF700FCA0EB08006428A4D8286880033F
:10111000F6D50CE0FFF7F6FB804605E0FFF7F2FBA3
:10112000A0EB0800642896D828688003F6D42078BD
:1011300080073BD5042E11D00C2E01D1022F0DD0EB
:10114000E06801E0B6E1FFE0002828681ED040F426
:1011500080702860FFF7D6FB07460CE02868400542
:101160000CD5E0680028C1D008E000BFFFF7CAFB3B
:10117000C01B022893D828684005F7D56868217CF1
:1011800020F0F85040EA016068600FE020F48070C1
:101190002860FFF7B7FB074605E000BFFFF7B2FB8B
:1011A000C01B0228B1D828684005F7D42078000772
:1011B00029D560690028D5F8940012D040F00100CC
:1011C000C5F89400FFF79EFB074604E0FFF79AFB83
:1011D000C01B022899D8D5F894008007F6D512E0F4
:1011E0002BE120F00100C5F89400FFF78BFB0746C8
:1011F00005E000BFFFF786FBC01B022885D8D5F8A5
:1012000094008007F6D42078400766D5A86D0027A3
:10121000C00008D4A86D40F08050A865A86D0127D3
:1012200000F08050009053480168C90512D401684D
:10123000814641F480710160FFF764FB804605E060
:10124000FFF760FBA0EB080002287DD8D9F800006A
:10125000C005F5D5A068012816D00528D5F890005E
:1012600017D020F00100C5F89000D5F8900020F0CC
:10127000040000BFC5F89000A06841F28839C0B1F1
:10128000FFF740FB80460FE0D5F8900040F00100EA
:10129000F0E740F00400C5F89000F5E7FFF732FBF7
:1012A000A0EB080149454FD8D5F890008007F5D547
:1012B0000EE0FFF727FB804606E000BFFFF722FBAA
:1012C000A0EB080149453FD8D5F890008007F5D438
:1012D0001FB1A86D20F08050A8652078800628D521
:1012E000606A0028D5F8980012D040F00100C5F8D7
:1012F0009800FFF707FB074605E000BFFFF702FB7A
:10130000C01B022820D8D5F898008007F6D510E039
:1013100020F00100C5F89800FFF7F4FA074604E052
:10132000FFF7F0FAC01B02280ED8D5F89800800706
:10133000F6D4A06AA8B1022824D00C2E7DD028684B
:1013400020F08070286000E0B3E02868000103D43A
:10135000E86820F00300E860E86807490840E860B2
:101360000CE09FE0001002404829000854000020D3
:101370004C00002000700040FFFFEEFEFFF7C2FAB5
:10138000044699E0E868E26A00F00301914226D140
:10139000216B00F070020901103991421FD1626B7C
:1013A00000F4FE41B1EB022F19D194F8382000F07F
:1013B0007841B1EBC26F12D1A18F00F4C00249088D
:1013C0004905A1F50011914209D194F8401000F0AF
:1013D000C06049084906A1F1007181424BD00C2E32
:1013E0006FD0286840016CD4286820F08070286095
:1013F000FFF788FA064604E0FFF784FA801B02280C
:1014000057D828688001F7D4F4E90B016FF00F0278
:1014100002EB01110843218A5204490802EB4151B1
:10142000A26841EA02210843217D4FF07E4249082B
:1014300002EB41610843217B00E042E040EAC160E9
:10144000E968214A11400843E860286840F080704C
:101450002860E86840F08070E860FFF753FA0446BF
:1014600005E000BFFFF74EFA001B022821D82868CC
:101470008001F7D523E02868800120D4286840F057
:1014800080702860E86840F08070E860FFF73AFA02
:10149000044604E0FFF736FA001B022809D8286842
:1014A0008001F7D50BE000BFFFF72CFA001B0228E4
:1014B00002D90320BDE8F88328688001F4D4002015
:1014C000F8E70120F6E700008C809D0110B5401E72
:1014D000B0F1807F01D3012010BD4FF0E0246061A6
:1014E0000F21601700F0E9FF0020A06107202061B4
:1014F000002010BDF0B590F83C20012A29D001242D
:1015000080F83C40022280F83D2003685A689D68BC
:10151000114EB34203D122F470074A683A4322F0D5
:1015200070070A683A435A600268B24205D0B2F1C5
:10153000804F02D0094B9A4204D1896825F080037C
:101540001943916080F83D40002180F83C10084626
:10155000F0BD0220F0BD0000002C01400040014021
:1015600010B5040003D094F83D0010B107E001204D
:1015700010BD002084F83C00204600F023F8022033
:1015800084F83D00211D206800F02EFD012084F824
:10159000480084F83E0084F83F0084F8400084F856
:1015A000410084F8420084F8430084F8440084F841
:1015B000450084F8460084F8470084F83D00002088
:1015C00010BD000008B500680649884208D10648E9
:1015D000016E41F400610166006E00F4006000904D
:1015E00008BD0000002C01400010024090F83D10A2
:1015F000012901D001207047022180F83D100068C8
:101600000B49884205D0B0F1804F02D00949884289
:1016100007D18168084A1140062906D0B1F5803FFC
:1016200003D0016841F00101016000207047000013
:10163000002C0140004001400700010070B5044645
:1016400090F83C00012817D0012584F83C50022076
:1016500084F83D00226890682E4B184020F47F40AB
:1016600090600868502830D00DDC20284DD005DC73
:1016700098B310283BD148E0022070BD302844D0F8
:10168000402834D139E0602828D0702806D0B0F541
:10169000805F2CD0B0F5005F29D10AE0CB68D1E99A
:1016A0000121206800F0D6FC2068816841F07701B4
:1016B00009E0CB68D1E90121206800F0CBFC20686B
:1016C000816841F48041816011E0CA6849682068FE
:1016D00000F0D2FC5021206807E016E0CA68496893
:1016E000206800F0DAFC6021206800F0BDFC84F87E
:1016F0003D50002084F83C0070BDCA6849682068ED
:1017000000F0BAFC40212068EFE72268014610464D
:10171000EBE7000088FFFEFF70477047704700004E
:101720002DE9F04102680446D0691168936840F6DB
:101730000F0528424FF0000505D1860678D58E06A4
:1017400076D5616EF3E0834F03F001060F40374317
:101750007ED0C70709D0CF0507D501271762D4F877
:10176000802042F00102C4F8802082070AD5DA07FF
:1017700008D0276802223A62D4F8802042F004029E
:10178000C4F8802042070AD5DA0708D0236804226B
:101790001A62D4F8802042F00202C4F880200207C6
:1017A0000CD501F02002324308D0236808221A62C7
:1017B000D4F8802042F00802C4F8802002050BD53E
:1017C0004A0109D523684FF400621A62D4F88020D8
:1017D00042F02002C4F88020D4F88020002A2FD0C4
:1017E000800605D5880603D5616E09B12046884775
:1017F000D4F8800021688968490602D410F0280FC7
:1018000020D0204600F0F7FC20688168490614D5F6
:10181000816821F040018160206F70B14E49816381
:10182000206FFEF75AFF00280AD0206F816B01E07D
:101830000EE02046BDE8F04108472046FFF76EFF66
:10184000BDE8F0812046FFF769FFC4F88050F7E754
:10185000276E2026012F59D1C70657D5CF0655D55B
:10186000102010622268906840062ED5216F08680B
:1018700040680004000CE3D0B4F858308342DFD94C
:10188000A4F85A0008680068800617D4106820F48D
:10189000807010602068816821F0010181602068FB
:1018A000816821F040018160E66725662068016853
:1018B00021F010010160206FFEF7EAFEB4F8580035
:1018C000B4F85A10401A81B21CE0B4F85800B4F8C9
:1018D0005A10401A81B2B4F85A000028B0D000293A
:1018E000AED0106820F4907010602068826822F0FA
:1018F00001028260E667256665662068026822F05C
:10190000100202602046FFF707FF99E7C70209D5DA
:101910005B0207D54FF4801010622046BDE8F0410D
:10192000FFF7FBBE030606D50B0604D5A16E002902
:101930007FF47FAF84E7400682D5480680D51068E3
:1019400020F040001060A6672046A56600F05DF913
:1019500076E7000020010004E321000810B5040030
:1019600002D0A06F10B107E0012010BD002084F864
:101970007400204600F026F82420A0672068016843
:1019800021F001010160204600F04EFC0128ECD05E
:10199000606A10B1204600F092FB2068416821F493
:1019A000904141602068816821F02A0181602068AF
:1019B000016841F0010101602046BDE8104000F0DF
:1019C000E2BB000010B59CB00446142115A8FEF738
:1019D000C4FC54216846FEF7C0FC1C4920688842BC
:1019E00031D101200024009008946846FFF76CF87C
:1019F00008B1FEF718FD1648016E41F480410166FA
:101A0000016E01F480411A91C16C41F00101C16481
:101A1000C06C15A900F001001A904FF4C060159039
:101A20000220CDE9160403201890072019904FF0EA
:101A30009040FEF78BFE002211462520FEF7C6FFE0
:101A40002520FEF7B5FF1CB010BD00000038014096
:101A5000001002402DE9F84F0446C06F9A46164622
:101A60000D46202870D10DB306B394F874000128F8
:101A70006AD0012084F874004FF00008C4F8808018
:101A80002221E167C4F860805834FEF73BFF24F858
:101A9000026B814624F852694FF4805354F80809C8
:101AA000FF21984208D122691AB11CE0012000F000
:101AB0004DB840F2FF1116E07F2290B1B0F1805F87
:101AC00014D0A4F85C8000BFB4F85C70984201D1D7
:101AD000206990B12E46002584F8748007F0FF0835
:101AE00025E0266936B9A4F85C10EDE7216909B153
:101AF0003F21F8E7A4F85C20E6E70026ECE74B4638
:101B0000002220212046CDF800A000F07DFC08B185
:101B10000320CCE72068808C8EB100EA080006F82C
:101B2000010B00BFB4F85A00401EA4F85A00B4F8E4
:101B30005A000028E3D12020E0670020B7E73840B2
:101B400025F8020BEEE7FFE70220B0E718BCBDE87E
:101B5000E08F00002DE9F8430446806F1F461646CB
:101B60000D4620284FD1CDB1C6B194F8740001289C
:101B700049D0012084F874004FF00008C4F8808038
:101B80002120A067FEF7BEFEA4F850608146A4F8AD
:101B90005260A068B0F5805F03D004E00120BDE88A
:101BA000F883206928B12E465FF0000584F8748020
:101BB00010E00026FAE78021204600F025FCB8B9A5
:101BC000C6B116F8010B21680885B4F85200401E12
:101BD000A4F85200B4F852004B464FF000020097B0
:101BE0000028E8D14FF04001204600F00DFC30B154
:101BF0000320D4E735F8020BC0F30800E3E7202008
:101C0000A0670020CBE70220C9E77047FEE700008D
:101C1000F0B587B014216846FEF79FFB2648C16CDB
:101C200041F00401C164C16C01F004010591C16C73
:101C300041F00101C164C16C01F001010591C16C69
:101C400041F00201C164C06C41F2FE1400F00200D8
:101C50004FF090460590002221463046FEF74CFE9C
:101C6000164F002203213846FEF746FE0125CDE936
:101C7000004500240294694630460394FEF766FD51
:101C800003200090CDE90154694638460394FEF7DD
:101C90005DFDE802CDE90004694630460294FEF796
:101CA00055FD6020CDE900040220029069463846C7
:101CB000FEF74CFD07B0F0BD0010024000040048E4
:101CC00010B588B000241848059406940394049431
:101CD000009401941349029401604721C0E9011462
:101CE0004FF6FE71C0E9031444618461FFF738FCCC
:101CF00008B172B6FEE74FF48050039003A90A487A
:101D0000FFF79CFC08B172B6FEE7009401946946A7
:101D100005480294FFF7EEFB002801D072B6FEE7FB
:101D200008B010BD002C0140580000200D4810B52F
:101D30000B4901604FF46141416000214FF40052B2
:101D4000C0E902120C22C0E904128161C161016282
:101D50004162FFF703FE002801D072B6FEE710BD16
:101D600000380140A4000020FEE7FEE770470000B5
:101D70002DE9F041444C05468846E068002681077D
:101D800028680DD0E16801F00301814216D1A8B1A5
:101D9000E0686968C0F30210401C88420ED120E060
:101DA000012804D0022805D0032807D108E02168C3
:101DB000890701E021684905002907DB01265FE06A
:101DC0002168890302D421684903F5E7E1686A685C
:101DD0006FF00F0321F0730103EB02121143014373
:101DE000E160206820F080602060FEF78BFD0746F0
:101DF00005E000BFFEF786FDC01B022837D820682B
:101E00000001F7D4B8F1000F18D0B8F1010F1DD0C0
:101E1000287D4FF07E41400801EB4060A96840EA10
:101E200001202169194A114008432061206840F0CF
:101E300080602060FEF766FD07461AE0A868297BEF
:101E4000000240EAC1602169114AECE7288A114981
:101E5000400801EB4050A96840EA012021690E4A80
:101E6000E1E700BFFEF74EFDC01B022801D90326A3
:101E700006E020680001F5D52069A96908432061C2
:101E80003046BDE8F081000000100240FF80FFF9FD
:101E9000FF80FF070000E0FFFF809FFFF8B51C4DAB
:101EA00006460024A86DC00002D5FEF7F5FD0DE042
:101EB000A86D40F08050A865A86D00F0805000909B
:101EC000FEF7EAFDA96D21F08051A965B0F5007F0C
:101ED00004D0802E07D94FF003040AE0802E08D9E1
:101EE000A02E01D804E001D1022402E0702E00D11E
:101EF00001240848016821F00701214301600068BE
:101F000000F00700A04201D00120F8BD0020F8BD7C
:101F100000100240002002407047FEF7F9BC0000AC
:101F200010B596B044216846FEF717FA142111A89F
:101F3000FEF713FA4FF40070FEF77AFD08B172B69F
:101F4000FEE7FEF7B1FD184850F8901F21F0180188
:101F5000016014200090012002900024602106906E
:101F6000CDE907410221CDE90A100C9028200D90FF
:101F70000720CDE90E0168461091FEF7F1FF08B188
:101F800072B6FEE70F2011900320CDE912041494DD
:101F9000042111A81594FEF7DDFE08B172B6FEE724
:101FA000FEF78AFD16B010BD001002400B48016814
:101FB00041F4700101600A48016841F001010160CB
:101FC000002181600268074B1A4002608214C260DF
:101FD000026822F4802202608161704788ED00E08F
:101FE00000100240FFFFF6EA70B50268164B4FF092
:101FF0008046984201D0B04203D122F070044A6872
:102000002243124C124D984205D0B04203D0A04258
:1020100001D0A84203D122F44076CA6832434E6907
:1020200022F08002324302608A68C2620A688262D9
:10203000984203D0A04201D0A84201D109690163AE
:102040000121416170BD0000002C014000400140B1
:102050000044014010B5846842EA032224F47F441E
:102060000A432243826010BD826822F070020A4354
:1020700042F007018160704710B5036A046A24F0DA
:1020800001040462846924F0F00444EA021423F099
:102090000A020A438461026210BD10B5036A23F08C
:1020A000100303628369046A23F4704343EA023233
:1020B00024F0A00343EA01118261016210BD90F88F
:1020C0002410C90706D001684A68836A22F40032E6
:1020D0001A434A6090F82410890706D501684A68B7
:1020E000C36A22F480321A434A6090F824104907E8
:1020F00006D501684A68036B22F480221A434A60BD
:1021000090F82410090706D501684A68436B22F449
:1021100000421A434A6090F82410C90606D50168A7
:102120008A68836B22F480521A438A6090F82410E4
:10213000890606D501688A68C36B22F400521A43E7
:102140008A6090F82410490611D501684A68036C2A
:1021500022F480121A434A60016CB1F5801F06D147
:1021600001684A68436C22F4C0021A434A6090F83E
:102170002410090606D501684A68806C22F4002202
:1021800002434A607047F8B500260446C0F88060F4
:10219000FEF7B8FB0546206800686FF07E47000731
:1021A00008D52B4600224FF400112046009700F07E
:1021B0002BF960B92068006840070AD52B46002239
:1021C0004FF480012046009700F01EF908B103206B
:1021D000F8BD2020A067E067266684F874600020C0
:1021E000F8BD10B5806A0021A0F85A10A0F852106E
:1021F000FFF794FA10BD01680A6822F490720A6031
:1022000001688A6822F001028A60016E012904D106
:1022100001680A6822F010020A602021C1670021CB
:1022200001664166704700002DE9F04104460068F0
:102230002269A168E66911436269002532431143AE
:102240006A4B02686A4E32400A4302602068416865
:10225000E26821F44051114341602168A06999422C
:1022600001D0226A10438A6822F4306202438A60F5
:102270006049276860488F420DD1D0F8880010F07F
:10228000030006D0012838D0022834D0032821D1F9
:1022900035E001211FE059498F420BD1D0F8880069
:1022A00010F00C0025D0042827D0082823D00C28B3
:1022B00010D124E09F420DD1D0F8880010F4406086
:1022C00017D0B0F5806F18D0B0F5006F13D0B0F50F
:1022D000406F14D010214A4800264FF400429F421C
:1022E0002DD171B1022912D004290DD0082971D144
:1022F00023E00021EFE70221EDE70421EBE70821CD
:10230000E9E7FEF7B7FD01E0FEF7D8FDE8B3626844
:1023100002EB420181425DD8B0EB023F5AD8010E78
:1023200003025008181871410023FDF79FFF354A3A
:10233000A0F54071914251D94CE01046E7E7E369BE
:102340004FF6EF77934229D1092943D2DFE801F014
:1023500005080E420B4242422400FEF78BFD04E0CA
:10236000FEF79AFD01E0FEF7A9FD70B1410060683B
:1023700001EB5001B1FBF0F080B2A0F11001B942C5
:1023800028D84FF6F071014000E029E0C0F3420088
:1023900001432068C16023E01046E7E7092919D20C
:1023A000DFE801F005080E180B1818181A00FEF7E0
:1023B00061FD04E0FEF770FD01E0FEF77FFD78B1FE
:1023C000616800EB5100B0FBF1F080B2A0F11001A8
:1023D000B94203D9012503E01046F1E72168C8603E
:1023E00066662846A666BDE8F081000000800040D1
:1023F000F369FFEF00380140001002400044004044
:102400000024F400FFFC0F002DE9F0479A46174620
:102410000E4604464FF000094FF02008089D39E0B1
:10242000681C37D0FEF76EFAA0EB0A00A84222D84B
:102430000DB32068016849072CD5C069C043000569
:1024400028D421684FF4006008622068016821F4F4
:10245000D07101602068816821F001018160C4F8B9
:102460007880C4F87C80C4F8808000BF84F87490C1
:102470000320BDE8F0872068016821F4D071016075
:102480002068816821F001018160C4F87880C4F877
:102490007C80EBE72068C06936EA000004D00020A9
:1024A000B842BDD00020E4E70120F9E70148FFF77A
:1024B00037B90000A4000020FEE70907090E002834
:1024C00004DB00F1E02080F80014704700F00F00FA
:1024D00000F1E02080F8141D7047000010B52021A5
:1024E0000948FEF704FA094900224B79984209D0BD
:1024F0000B795B1CDBB20B71052B04D3487108B15F
:10250000012008700A7110BD00040048000000207E
:1025100010B540210948FEF7EAF909490022CB79B4
:10252000984209D08B795B1CDBB28B71052B04D3ED
:10253000C87108B1012048708A7110BD00040048BC
:1025400000000020044900220B685A6209684A6AA8
:102550008242FCD3704700005800002010B50120D3
:1025600000F04DF8BDE810400220FEF7DDB810B5D0
:102570003220FEF7D9F8302000F041F80520FEF7B0
:10258000D3F8302000F03BF80120FEF7CDF83020E2
:1025900000F035F80A20FEF7C7F8202000F02FF8E9
:1025A0000A20FEF7C1F8282000F029F80120FEF7E4
:1025B000BBF8082000F023F80120FEF7B5F8012051
:1025C00000F01DF80120FEF7AFF80120FEF7ACF88F
:1025D000062000F014F80120FEF7A6F8BDE8104030
:1025E0000C2000F00CB810B1012805D102E041F038
:1025F000800101E041F0C001C8B2AFF3008010B526
:1026000004460009002100F067F904F00F00BDE85E
:102610001040002100F060B910B504460009012106
:1026200000F05AF904F00F00BDE81040012100F05D
:1026300053B910B5044602E0641CFFF7EDFF2078A3
:102640000028F9D110BD0000FEF76AF9FFF768FC19
:10265000FFF7DEFAFFF734FBFFF768FB7748FEF77A
:10266000C5FFFFF784FF00210846FFF7BCFF74A0F9
:10267000FFF7DFFF40F6B83844464046FEF754F80F
:10268000FFF76CFF70A0FFF7D4FF72A0FFF7D1FF38
:1026900000210120FFF7A7FF6FA0FFF7CAFF6DA081
:1026A000FFF7C7FF2046FEF73FF8FFF757FFDFF8B9
:1026B000B8914FF47A7A0027A9F128044FF4FA6B05
:1026C000FFF70CFF207838B3FFF748FF6420FEF7D0
:1026D0002BF866A0FFF7ADFF45464046FEF724F80D
:1026E000FFF73CFFFDF7DAFE6420FEF71DF80C2033
:1026F000FDF7C2FF6420FEF717F899F809004E466F
:1027000058B302287DD05CA0FFF793FF2770504696
:10271000FEF70AF8FFF722FFFFF7FAFE607838B1FC
:10272000FDF712FF67705046FDF7FEFFFFF716FF3B
:10273000E0780328C4D1012215024FF090462946C3
:102740003046FEF7D9F8E7705846FDF7EDFF002256
:1027500029463046FEF7D0F8B2E76420FDF7E4FFE3
:10276000FDF764FE6420FDF7DFFF0C20FDF784FF1A
:1027700046A0FFF75EFF00210120FFF734FF284647
:10278000FDF7D2FFFFF7EAFE45A0FFF752FF28460C
:10279000FDF7CAFFFDF782FE6420FDF7C5FF0C20A0
:1027A000FDF76AFF6420FDF7BFFFFFF7D7FE707AE1
:1027B00018B102282FD030A03CE05846FDF7B4FFF6
:1027C00032A0FFF736FF00210120FFF70CFF38A0F1
:1027D000FFF72FFFA0783030C0B2FFF71DFFFDF7E5
:1027E0003BFE6420FDF7A0FF0C20FDF745FFFDF741
:1027F0006BFE6420FDF798FF0C20FDF73DFF642081
:1028000000E016E0FDF790FF2846FDF78DFFA07869
:10281000401CA07002E028A0FFF70BFF2846FDF740
:1028200083FFFFF79BFE2846FDF77EFFFFF796FE2E
:102830006CE725A0FFF7FDFEF5E70000580000203B
:1028400048454C4C4F200000544F20414444202D1B
:102850003E20310000000000544F205645524946AA
:1028600059202D3E20320000280000204144442001
:1028700046494E47455200004E6F7468696E6720A6
:1028800068617070656E6564000000005375636375
:1028900065737366756C20656E7472790000000054
:1028A000204144442046494E474552200000000044
:1028B00020494420697320004661696C20746F20B0
:1028C00064657465637400004661696C20746F20F0
:1028D000646574656374320070B50446CAB24FF023
:1028E000904502212846FEF707F8C4F3C002802174
:1028F0002846FEF701F8C4F3800240212846FDF780
:10290000FBFFC4F3400220212846FDF7F5FF04F049
:10291000010210212846FDF7EFFF01220821284679
:10292000FDF7EAFF1420FFF70DFE002208212846DC
:10293000FDF7E2FFBDE870401420FFF703BE4FF043
:102940004070E1EE100A7047000000000000000037
:102950000102030406070809A0860100400D0300D8
:10296000801A060000350C0040420F0080841E00D3
:1029700000093D0000127A000024F40000366E01C8
:102980000048E801006CDC020000000001020304C2
:10299000B02900080000002058000000C80100080D
:1029A000082A00085800002030070000E401000851
:1029B0000000010000000000EF01FFFFFFFF010029
:1029C00003010005010003050009010004020100E4
:1029D00008010004020200090000010000000000DC
:1029E000000A00000100080401000003E700F801EC
:1029F00000060601000B0019010000001000000095
:082A00000000000000093D0088
:040000050800018D61
:00000001FF
